:1000000000000220652F0000912F0000912F0000BA
:10001000912F0000912F0000912F0000912F0000E0
:10002000912F0000912F0000912F0000912F0000D0
:10003000912F0000912F0000912F00006D220000F1
:10004000D10D0000912F000029210000912F000008
:10005000912F0000912F0000912F0000912F0000A0
:10006000912F0000912F0000912F0000912F000090
:10007000912F0000912F0000912F0000912F000080
:10008000912F0000912F0000912F0000912F000070
:10009000912F0000912F0000912F0000912F000060
:1000A000912F0000912F0000912F0000912F000050
:1000B000912F0000912F0000ED2C0000912F0000E7
:1000C000912F0000912F0000912F0000912F000030
:1000D000912F0000912F0000912F000010B5054CCA
:1000E000237833B9044B13B10448AFF300800123E4
:1000F000237010BD80000020000000006C4E000046
:10010000084B10B51BB108480849AFF300800848F8
:10011000036803B910BD074B002BFBD0BDE81040AE
:10012000184700BF000000006C4E00008400002053
:100130007C00002000000000154B002B08BF134B73
:100140009D46A3F5803A00218B460F461348144A7A
:10015000121A04F0B4FB0F4B002B00D098470E4B43
:10016000002B00D098470020002104000D000D480E
:10017000002802D00C48AFF3008004F067FB200099
:10018000290000F07FF804F04DFB00BF00000800DC
:10019000000002200000000000000000800000209D
:1001A000E0010020000000000000000000B589B060
:1001B0008DF807100421ADF80E10ADF81C300DF1CC
:1001C0000701074B04910121ADF80C00ADF81410A4
:1001D000186803A9069202F04FFB09B05DF804FB12
:1001E000A800002000B589B08DF807100821ADF8EF
:1001F0000E10ADF81C300DF10701074B04910121E1
:10020000ADF80C00ADF81410186803A9069202F0BE
:1002100033FB09B05DF804FBA800002010B5134BB8
:100220001B786BB1124C04F10801201D02F050F94B
:10023000012002F02FFA0F48A168626802F028F846
:100240000D4B1B7883B10A4C0C4B04F10C0218685F
:10025000802104F1100302F0B8FD2169E26808482A
:10026000BDE8104002F014B810BD00BFAC00002083
:10027000B0000020544A0000AD000020A80000207B
:10028000754A0000F0B5A5B0944B19A81C6801F0A0
:10029000E1F8B4F1805F0BD39DF86430032B01BF0C
:1002A0008F4A136823F0500343F0100308BF136014
:1002B0008C4D01F08DFF0BAC01F0BCFF01F07AFE1C
:1002C00001F084FF884801F0E6FF01F03DFF0FCD0B
:1002D0000FC495E8030084E803000BA802F078FA45
:1002E000824C0B9B00200146236002F0E9FD0320B5
:1002F00002F002FE02F09EFB7D4802F07BFB7D4B8C
:1003000019A822937C4B7D4E21937D4B2393EE23A2
:100310008DF8813002F068F908B901233370337821
:100320000BB1784800E0784801F0B2FF33785BB158
:10033000002002F085F9002002F0CCF9012002F043
:10034000A9F9002002F0F0F9206880210DF10B02DC
:1003500002F064FD6D4F08B101233B703B780BB197
:100360006B4800E06B480024614D01F091FF009460
:10037000012142F210722346286802F0A7FB664A68
:100380000123106851688DF8443008AB03C39068AE
:100390001860234608A811AA1A44C15C01330C2B2B
:1003A0005170F8D101F05CFF044601F059FF001BC9
:1003B000012804D902F0C2FD01F052FF04462021B9
:1003C00011A801F077FF11A8202101F08BFF002870
:1003D000EBD0524A05AB5168106803C31189927A79
:1003E00019809A70002324AA1A4412F84B1C12F8A0
:1003F0007C2C914218BF64230133DBB20A2BF2D963
:10040000642BD2D00E21464801F06CFF444801F025
:100410008FFF01F025FF03238DF80C303B7803B1EB
:1004200001238DF80F30337803B101230520002418
:100430008DF80E3001F022FF3023052103A88DF83E
:1004400010308DF811308DF80D4001F033FF286821
:1004500002F02CFC324B00949A6801212346286854
:1004600002F034FB02F06AFD05238DF8143041F2EE
:10047000883306932B4B04221A70FFF7CFFE12210C
:10048000284801F017FF05A8062101F02BFF10B93D
:100490000134E4B200E000242348069901F0FBFE99
:1004A000082C0CD1BFF34F8F2049214BCA6802F4AE
:1004B000E0621343CB60BFF34F8F00BFFDE7002125
:1004C0000091069A0B46286802F000FB01F0E6FE58
:1004D00002F034FD01F0E8FECFE700BFFC81E00F41
:1004E000C0800C40304A0000944A0000A800002060
:1004F000C4000020AD010000E5010000AC000020B8
:100500007D2200009A4A0000A94A0000AD000020A8
:10051000BC4A0000CB4A0000484A0000E94A0000FB
:100520009C000020B0000020DE4A000000ED00E04A
:100530000400FA0510B541F67132184B1849DC6B0E
:10054000DA635B6803F00703042B05D8012202FA83
:1005500003F313F0130F19D1884201D9052309E0E1
:100560000123104A104902448A420DD8002B14BFBF
:100570000323012309494A6822F0070213434B6011
:1005800054B10023CB6310BD5B00F3E7884201D96F
:100590000423EFE70023E4E710BD00BF00000C4098
:1005A0000048E801FFDB0BFFFF23F40008B502F071
:1005B000F1FCBDE80840FFF7BDBF0000104BDB6C4D
:1005C000C3F307434A2B06D0792B04D0482B0D48A0
:1005D00018BF002070470C4A10699369D26900F077
:1005E0003F00C2F3031242EA002003F0F003184375
:1005F000044A064BB0F5017F2CBF184610467047E1
:10060000B081E00F0048E801D0FF0FE000366E0136
:10061000174B5B6903F4E063B3F5007F15D004D892
:100620008BB1B3F5807F20D01DE0B3F5C06F18D03B
:10063000B3F5E06F13D0B3F5407F14D10D4B0E4AE4
:10064000D86C0E4B05E00E4870470A4B0D4AD86C2B
:100650000D4BB0F1985F2CBF1846104670470B4801
:1006600070470B487047002070470A48704700BF2A
:1006700000800C40B081E00F40420F00804F12001C
:10068000809FD500C0CF6A0040B56400406F400134
:10069000003FAB01C0D8A700034B5A6DD20702D46C
:1006A0001A6D1042FCD1704700800C4038B5C0F381
:1006B0000313013B0C46062B00F2A680DFE803F093
:1006C00004A4A40F1A398100FFF770FF4F4A013CC0
:1006D000136823F4E03343EA8434146023E0B1FA6E
:1006E00081F44A4AC4F11F04936823F00F031C43AA
:1006F000946038BDFFF75AFF02F050FCB0FBF4F5F0
:10070000FFF75CFFB4FA84F4414B854294BF0020AC
:1007100001203E4A186098625368C4F11F0423F018
:100720000F031C43546002F099FCBDE83840FFF70A
:1007300001BF384B98421AD004D8A3F582239842BF
:1007400007D038BD344B98421FD0344B98422AD042
:1007500038BDB4FA84F40420FFF79EFF2B4AC4F19D
:100760001F04936E23F0F00343EA041427E0B4FA65
:1007700084F40420FFF790FF244AC4F11F04936E11
:1007800023F4706343EA042419E0B4FA84F40420E7
:10079000FFF782FF1D4AC4F11B04936E23F44053FC
:1007A00043EA04340BE0B4FA84F40420FFF774FF46
:1007B000164AC4F11F04936E23F003031C4394668E
:1007C00038BD174B984204D003F5043398420DD03E
:1007D00038BDB4FA84F44020FFF75EFF0B4AC4F141
:1007E0001F04136F23F003031C430CE0B4FA84F4DA
:1007F0004020FFF751FF054AC4F11F04136F23F097
:10080000300343EA0414146738BD00BF00800C4075
:1008100078009043602614006000260060062A00DD
:100820007007160000F00F000138062851D8DFE8E5
:1008300000F00414225050364000294BDB6A03F4C8
:100840007053B3F5805F48D0B3F5005F43D0B3F584
:10085000006F0CBF042005207047214B986A00F000
:10086000030002283AD0032813D0012835D09B6A10
:1008700013F4803F0FE01A4A936A03F00C03082B2D
:1008800029D00C2B05D0042B27D0936A13F4801F9A
:1008900001E0062070470CBF012009207047104B73
:1008A0001B6813F0805302D0B3F1805F0DE0072086
:1008B00070470B4BDB6A03F46033B3F5803F0AD01B
:1008C000B3F5003F09D0B3F5004F0CBF082001205D
:1008D000704700207047022070470320704700BF18
:1008E00000800C4010B50446FFF79CFF1D4B9C4256
:1008F00007D01D4B9C4208D11C4B986AC0F3810065
:1009000003E01A4B986A00F00300032827D8DFE8B9
:1009100000F01302060ABDE8104002F0B6BBBDE8C5
:10092000104002F0B9BB02F099FB114B114A1B6851
:1009300012680133D84010BD0A48844202D00A4BE5
:100940009C420CD184420CBF10201420074B9B6AA0
:1009500033FA00F004D0BDE8104002F099BB00204B
:1009600010BD00BF02001A0003001C0000800C40F4
:1009700078009043A000904308B500F47810B0F5DB
:10098000B01F7AD018D8B0F5402F7CD009D8B0F578
:10099000003F3FD0B0F5802F35D0002840F0948044
:1009A0008EE0B0F5801F3BD0B0F5A01F40D0B0F571
:1009B000602F40F089806EE0B0F5081F6FD010D82E
:1009C000B0F5D01F2AD0B0F5E01F51D0B0F5C01F50
:1009D0007AD13E48FFF786FF3D4B1B6FC3F30113EF
:1009E00044E0B0F5201F2BD0B0F5281F37D0B0F56C
:1009F000181F69D13748FFF775FF354B9B6EC3F35E
:100A00000133043332E002F0C9FA314B9B6803F042
:100A10000F032BE0BDE8084002F020BB2D4828E082
:100A20002C48FFF75FFF2A4B9B6EC3F303131DE0B7
:100A30002848FFF757FF264B9B6EC3F3032315E0AF
:100A40002448FFF74FFF224A936EC3F30133D84087
:100A5000D36F03F007030133B0FBF3F008BD1D486B
:100A6000FFF740FF1A4B9B6E03F00303D84008BD0D
:100A70001648BDE80840FFF735BF1448FFF732FFBE
:100A8000134B1B6FF0E71448FFF7CCFE072802D08A
:100A9000082819D114E0BDE80840FFF7B9BD0F4898
:100AA000FFF7C0FE032807D0082809D002280BD181
:100AB000BDE8084002F0F0BABDE8084002F0E5BA2F
:100AC000BDE8084002F06ABA002008BD03001C001F
:100AD00000800C4002001A0006000C0007232200D0
:100AE00070B5C0F30323013B04460E46092B2FD8F3
:100AF000DFE803F02105082E2E181B2E2E1E0020E5
:100B0000144D1AE01448FFF737FF0546FFF756FD6E
:100B1000124B854294BF002001201860104D98624E
:100B200000200AE001200F4D07E010200E4D04E0E8
:100B300000200E4D01E00E4D0020C4F3043408B136
:100B4000FFF7AAFD05F1047504EBC504A4002660B7
:100B500070BD00BF44800C40004302007800904309
:100B600040800C4058800C4060800C4078800C40E5
:100B700008800C4030B5042829D8DFE800F00F0BBE
:100B80000315070008200423032410E0202010236D
:100B900005240CE080204023072408E04FF4007077
:100BA0004FF48073092402E001231C460220084D03
:100BB00041B12B623AB1074B23449B001A68002ACB
:100BC000FCD000E02862BDE8304000F029BA30BD1A
:100BD00000800C406001E41038B500F00F056B1E7A
:100BE000062B00F2DD80DFE813F007005F005F00F6
:100BF000DB00DB00A700B7000239032900F2D48034
:100C0000DFE801F0340205240120032430E0FFF77F
:100C1000D5FC0446FFF7D2FC01348442634B94BFF9
:100C2000002001201860986202F028FA604B614AA7
:100C3000984213684FF0020096BF23F0600343F020
:100C4000600343F020031360044611E0FFF7B6FC95
:100C50000446FFF7B3FC01348442544B94BF002098
:100C60000120186001249862032001E00020042480
:100C700001210A46FFF77EFFFFF798FC4D4B4E48D7
:100C80005C62FFF779FE0446FFF798FC474B84420D
:100C900094BF002001201860986200F0C1F902F0B2
:100CA000DDF9FFF747FC7BE0013908297CD8DFE854
:100CB00001F02A08107B7B187B7B050001230020B4
:100CC00023E0012100200A46FFF754FF0023022001
:100CD0001BE0012001460246FFF74CFF00230120E4
:100CE00013E002F0BBF90446FFF768FC2F4B844287
:100CF00094BF00200120012218609862C3F8982751
:100D00000320002301E0002318462A4C022DA16A8B
:100D100013BF1B0521F4803222F0030221F480125C
:100D200015BF43EA8003024322F00C0242EA034368
:100D300018BF1343A36233E0072902D0082905D066
:100D400038BD1C4A136823F0805303E0194A136826
:100D500043F08053136023E003290FD0082919D0F2
:100D6000022921D101210A460020FFF703FF114B80
:100D700040225A62DA6AD003FCD511E00120024613
:100D80000146FFF7F7FE0B4B60225A62DA6A9103C5
:100D9000FCD505E0074B20225A62DA6A1204FCD522
:100DA000024B1B68054B1B6838BD00BF78009043A1
:100DB0000048E80100800C4000430200A00090437E
:100DC000EFF3108072B6704700B962B6704700004A
:100DD0002DE9F04141F20C01184B194A0227126823
:100DE0005E58D3F83880164006EA08050024EDB1B5
:100DF000EB0718D5114B01229B681249A2400A60EB
:100E000003EB0413DB6873B1197AD3F800C081F0E7
:100E100001021A72BCF1000F05D00031204618BF44
:100E200001215A68E0476D080134E0E7012F26EA06
:100E3000080501D00127D9E7BDE8F08100200C406A
:100E400000300C4008300C4010B545F60E0240F260
:100E500055101A4BD3F88410C3F88420184A01F0B7
:100E600001011268104002F0010402F47052B2F560
:100E7000805F186206D0B2F5005F08D0B2F5006F4F
:100E800011D10AE0DA6A1206FCD5032203E0DA6A1D
:100E90009005FCD50422094B04E0084BDA6A1207DE
:100EA000FBD502225A6214B9044B02221A6219B10C
:100EB000024B0022C3F8842010BD00BF00800C400C
:100EC000C80000200B4A10699369D26900F03F0006
:100ED000C2F3031242EA002003F0F0031843B0F516
:100EE000827F04D3A0F50173584258417047012016
:100EF000704700BFD0FF0FE0F8B5154B154CDB6A0B
:100F0000154A23601369064643F004031361FFF793
:100F1000D9FF50B1114B124F1A681740C3F88070B7
:100F20005D6825F04605C3F8845030BF10B10B4B07
:100F30001F605D601EB1BDE8F840FFF785BF236804
:100F40005B0503D4BDE8F84002F088B8F8BD00BFE7
:100F500000800C40C800002000ED00E000E100E04F
:100F60009CF1FD00F8B5064645F60E001B4B1C4AE9
:100F7000D96A15461160D3F88410C3F8840011F0C3
:100F8000010F18BF00224FF42070186218BFC3F879
:100F90008420144A136943F004031361FFF792FF9E
:100FA00050B1114B114F1A681740C3F880705C683C
:100FB00024F04604C3F8844030BF10B10A4B1F60D0
:100FC0005C601EB1BDE8F840FFF73EBF2B685B05D3
:100FD00003D4BDE8F84002F041B8F8BD00800C40F1
:100FE000C800002000ED00E000E100E09CF1FD0001
:100FF0004AF6E850094B1A68196822F00C0242F0D0
:10100000080241F00C0198601A6019601A601960BA
:101010001A6019601A6019601A60704700600C400D
:10102000024BDA6A024B1A60704700BF00800C4026
:10103000C8000020F0B562B1012524248D4044434E
:101040002BB104F1804404F5C044256101E01A4E3F
:10105000355124244443072904F1804404F5C04455
:101060000CD867684FEA810E0F2505FA0EF527EABE
:10107000050602FA0EF5354365600CE001F1804586
:10108000083DA768AD000F26AE4027EA060602FA23
:1010900005F53543A5606AB9012424228C4033B19B
:1010A000504300F1804000F5C0400461F0BD424370
:1010B000014B9C50F0BD00BF1460004070B5044669
:1010C0001E461546FAB1026822F4407202600268B8
:1010D00022F4407242EA0322026019B90A48FFF77B
:1010E0004BFC01462368094BA1EB85019A5D2368FF
:1010F0006A43B1FBF2F29B0702F1FF3202D5002AEC
:1011000008BF0122226170BD40810400F44A000042
:1011100038B50D4600224263084A00F104740263A8
:101120004A78630182F001025A60AA682B7B496801
:10113000FFF7C4FF2A7863011A6038BDCFFF0100B2
:1011400070B5744B984206D003F58063984240F026
:10115000DB80714B00E0714B9A68816A11F4C06FBB
:1011600008D08E0501D5FD22BFE04D0540F1BE80BF
:10117000FE22BAE01C78082C00F2B680DFE804F00A
:10118000051A323D545F7C8BAE0051881288CC0624
:1011900005D5120A02F0060242F0F00205E002F064
:1011A000FE02890748BF42F0010201211970426224
:1011B00041609DE00E0661D44D0640F199804021CA
:1011C00001635188CC0603D502211970127829E0F9
:1011D0008E075DD507211970197902EBC1021289BA
:1011E000012A77E00D0649D44C0640F18180402168
:1011F0000163518889074BD530E051881288CE06AB
:1012000043BF120A02F0060242F0F00202F0FE02B0
:101210004D074FF0040119704FF0010148BF42F033
:1012200001024160426263E00C0627D449065FD5A3
:101230004021016351884E072AD5072257E01979CA
:101240005C8802EBC1052E89A6420ED80131C9B2D5
:10125000002419715C805488650701D5032118E0CA
:10126000E6070FD401290DD877E76A68611C598019
:10127000125D426206223AE00D0605D58022026325
:10128000FF225A7008221CE04C0631D54021016330
:101290000521197061E789062AD519795C8802EB66
:1012A000C1021189C5698C423FBF5268661C5E80CD
:1012B00015555A888A4207D301294FF0080208BF02
:1012C00042601A70022207E00424012944600FD012
:1012D00001398A420CD10822426009E0CA0507D5CB
:1012E0004FF48072026301E0FB225A7009221A70E7
:1012F0001A78092A0AD193F90110002201294263C0
:1013000008BF5A70587802E0FC2000E0012040B28B
:1013100070BD00BF00A00040D8000020CC0000201D
:1013200010B5194B984205D003F58063984227D138
:10133000164B00E0164B8268D20744BF2022426061
:101340004A88940701D50C89D4B1520701D50A8A7D
:10135000B2B1002201241A715C701A705A8099602F
:10136000C0234360836ABDE810409B0648BFC36941
:10137000084B0363436B43F4FC634363FFF7E0BE36
:101380006FF0030010BD00BF00A00040D800002097
:10139000CC000020CFFF0100084B012208499A60D1
:1013A0008B6813401CBF4AF6E850886005490A6004
:1013B00000220A600BB1024B9A60704700A00C40FB
:1013C00000600C4080048C4310B5084B5A68002321
:1013D00018460749CC1859586468114202D0144283
:1013E00008BF08430833802BF3D110BD00A00C4088
:1013F000F84A000020B1012805D1044BD868704795
:10140000024B986870470020704700BF00000840FA
:1014100018B1012803D1024B00E0024B196070475C
:101420000C00084008000840427803780AB143F0F5
:10143000020382780AB143F00403014A1360704743
:10144000000008404FF0864300221A6001221A6013
:10145000704700000B4A536903F00F011369C3F38F
:10146000811343EA81038370136903F03F034370E0
:10147000936903F0F001D369C3F303130B430370C3
:10148000704700BFD0FF0FE030B50C780CB90223D5
:10149000436000234362CB788A781B0443EA0263EB
:1014A0000A7A13438A7943EA8223CA7943EA0223F8
:1014B0004A78002A14BF4022002213434A7A002AA5
:1014C00014BF8022002213438A7A002A14BF2022EC
:1014D00000221343CA7A002A14BF102200221343A9
:1014E0000A79002A4A7914BF4FF400550025002AD2
:1014F00043EA050314BF4FF0805200221A430B7BCE
:10150000002B14BF08230023134303600CB10123F5
:10151000436030BD10B5537814781B0643EA8463EA
:101520009479033123439478090143EA0443D4783E
:1015300043EA0433147943EA8423547943EA0423C5
:10154000D479002C14BF4FF4001400242343147AE0
:10155000002C14BF4FF4801400242343547A927A51
:10156000002C14BF10240024002A43EA040314BFF3
:10157000042200221343435010BD000038B5044636
:10158000154619B90A48FFF7F7F901466B1E03EB38
:101590004101B1FBF5F2616992010648403A21F43C
:1015A000FF13104023F4FE530343636138BD00BFB3
:1015B0004081040000FF1F0040F6AA6341F20502CB
:1015C000C36000230360426041F6F97283604361A7
:1015D000C3648264074A4365904208BF036583651C
:1015E000054B984203D003F58063984201D1002354
:1015F000C365704700C0004000C4004038B50C46C9
:101600000546FFF7D9FF238AA27B296843F001032F
:10161000002A9BB214BF4FF4806200220B43134395
:10162000227D2B602B68002A14BF4FF0005200224D
:1016300013432B60A37C1BB1E37C43F01003AB6529
:10164000237B284643F480536B606168A268FFF7F0
:1016500095FF637B0BB11023EB602378EB6038BD03
:1016600003695A06FCD5416303699B06FCD5C06932
:10167000C0B27047704710B5044602F0AEFF204676
:1016800010BD000070B586B06C4606461F4B0121A8
:1016900003601F48FFF724FA1E480121FFF720FAD4
:1016A0000320002104220123FFF7C4FC01210A4684
:1016B00003200023FFF7BEFC0320022104220123A4
:1016C000FFF7B8FC0320052101220023FFF7B2FC3D
:1016D00004210A4603200123FFF7ACFC0E4D032032
:1016E000014604220123FFF7A5FC0FCD0FC495E8A6
:1016F000030084E80300094C69462046FFF77EFF9B
:1017000040F20B133046636506B070BD984B000085
:1017100000D2040000120400784B000000C4004016
:101720000148FFF79DBF00BF00C4004043884179D6
:1017300001229A4024234B4303F1804303F5C04325
:101740001A6170474388417901229A402423594302
:10175000014B5A50704700BF14600040F8B50E4668
:1017600014461D460746FFF7EDFF06F01F01094826
:10177000FFF7D6FF06462544AC4206D00548FF21B8
:10178000FFF7CEFF04F8010BF6E73846FFF7CEFF70
:101790003046F8BD1001002070B50E46094C0546D4
:1017A000FFF7D0FF06F01F012046FFF7B9FFFF212A
:1017B0002046FFF7B5FF04462846FFF7B7FF20464F
:1017C00070BD00BF10010020F8B50E4614461D463E
:1017D0000746FFF7B7FF06F01F010A4841F0200156
:1017E000FFF79EFF06462544AC4205D014F8011BC6
:1017F0000448FFF795FFF7E73846FFF797FF3046B5
:10180000F8BD00BF10010020F8B50C460A4D174680
:101810000646FFF797FF04F01F01284641F020011C
:10182000FFF77EFF044639462846FFF779FF30462A
:10183000FFF77CFF2046F8BD100100202DE9F041A4
:10184000C4799846A24228BF2246037A05460F462D
:10185000164613B9A41AE4B200E000242846FFF7A4
:1018600071FF41460D48FFF75BFF80463E44B7429B
:1018700005D017F8011B0948FFF752FFF7E734B10D
:1018800006480021013CFFF74BFFE4B2F7E728468A
:10189000FFF74CFF4046BDE8F08100BF100100207B
:1018A0002DE9F041C479037AA24228BF22460546B9
:1018B0000F46164613B9A41AE4B200E000242846E5
:1018C000FFF740FF0E486121FFF72AFF80463E44A4
:1018D000B74206D00A48FF21FFF722FF07F8010BA5
:1018E000F6E734B10648FF21013CFFF719FFE4B2E7
:1018F000F7E72846FFF71AFF4046BDE8F08100BF32
:101900001001002038B50C460546FFF71BFF2146A5
:101910000448FFF705FF04462846FFF707FF204667
:1019200038BD00BF10010020E221FFF7EBBFE1212D
:10193000FFF7E8BFFF21FFF7E5BF00001FB5C1F3C8
:1019400000120092C1F34202019201F001020292E0
:101950000448C1F38012C1F3401300F099FC05B0B4
:101960005DF804FB2E4C0000F8B515461C460746F2
:101970000B4800F08DFC2C44E4B2A5420BD0294664
:101980003846FFF709FF6E1C0146F6B2054800F025
:101990007FFC3546F1E70448BDE8F84000F078BC2C
:1019A0009E4C0000A44C0000334D00002DE9F84F80
:1019B00000AF93461D468046174800F069FC5D4421
:1019C000EDB2AB4521D098F80E30E946DA1D22F091
:1019D0000702ADEB020D59466A4640465C1EFFF712
:1019E000BDFE0E48EA4600F053FC0BF10106F6B2CC
:1019F0006C445445234605D309481978013C00F04E
:101A000047FCF6E7B346CD46DBE70648BD46BDE8F2
:101A1000F84F00F03DBC00BF9E4C0000AC4C0000F5
:101A2000A74C0000334D000010B543712023028005
:101A3000C371BDF808200523837300234280017120
:101A4000437210BD7D290A4628BF7D220521FFF77C
:101A5000DBBE000010B504460388017901229A40DC
:101A600024235943154B5A50806900F0F7FB204658
:101A70001D21FFF791FE830705D5A06900F0EEFB5D
:101A80002046FFF754FF2046FFF74EFF2046002177
:101A9000FFF782FE002100F0FE022046FFF7B4FEB1
:101AA00020460221FFF778FE40F001020221204685
:101AB000BDE81040D2B2FFF7A7BE00BF14600040DF
:101AC00010B50388017901229A4024235943074B1A
:101AD00004465A500021FFF75FFE002100F0FD028E
:101AE0002046BDE81040FFF78FBE00BF14600040E5
:101AF00010B500210446FFF74FFE00F0020303F08B
:101B0000FF0153B940F00202D2B22046FFF77CFE3B
:101B1000BDE81040052000F0B1BB10BD10B500219C
:101B20000446FFF739FE00F0020303F0FF012BB972
:101B300040F00202D2B22046FFF766FE00F090FBB2
:101B4000206110BD10B5044600F08AFB2369C01A5D
:101B5000052894BF0020012010BD10B5002B14BF34
:101B6000B023A0230446FFF769FE9DF8083053B167
:101B70002388217901229A4024234B4303F1804397
:101B800003F5C0431A6110BD37B501240094054622
:101B9000FFF7E3FF2846FFF7CDFE10F0300FF9D036
:101BA0002B882A79012404FA03F124235A43084B91
:101BB0002846995007217022FFF726FEC30604D558
:101BC0002846FFF7B4FE002000E0204603B030BDF9
:101BD000146000400023FFF7D7BF38B50C4617212B
:101BE0000546FFF7D9FDC30707D444B12846FFF7E0
:101BF000A1FEC0F34200207001E0002038BD0120AA
:101C000038BD0021FFF7E9BF10B50446FFF748FED5
:101C10002046BDE8104007217022FFF7F5BD37B51B
:101C2000044602AD65E902230A212A46837BFFF7B9
:101C3000CBFD2A46A37B20461021FFF7C5FD204699
:101C40001121E279FFF7E0FD03B030BD37B504465E
:101C5000CDE900230D4629B96946A27B093002F07F
:101C600023FE03E0062921D8012905D1104B204687
:101C7000595D6A46A37B03E06A460D4B595C01231C
:101C8000FFF7A2FD0B4BE279595D2046FFF7BCFD43
:101C900002212046FFF780FD074B01225B5D0221F8
:101CA0009A400243D2B22046FFF7AEFD03B030BDEA
:101CB000284C0000D74B0000844D000038B5023995
:101CC00011F0FF02054608D002F00304224603216A
:101CD0000234FFF799FDAC7338BD0321FFF794FD83
:101CE0000223AB7338BD000038B50D46022104460F
:101CF000FFF752FD064B01225B5D02219A4020EA6C
:101D00000202D2B22046BDE83840FFF77DBD00BFD9
:101D1000844D000010B50446FFF7EAFE002120467E
:101D2000FFF73AFD40F001020021D2B22046FFF752
:101D30006BFD072170222046FFF766FD238821797D
:101D400001229A4024234B4303F1804303F5C0430F
:101D50001A61617A204631B10A2104F10902A37B9C
:101D6000FFF732FD01E0FFF7BFFF2046FFF7DCFD84
:101D700020461D21FFF710FD830704D52046BDE84E
:101D80001040FFF7D4BD10BD0A46012102B13F2229
:101D9000FFF73ABD38B50C4606210546FFF7FCFCB7
:101DA000032C9CBF6400013400F0F80294BF04F0DF
:101DB000FF040724284622430621BDE83840FFF7E8
:101DC00023BD08B50621FFF7E7FCC0F3410008BDBD
:101DD00070B50E4606210546FFF7DEFC022E00F028
:101DE000D70404D144F020044FF4E17305E0012E40
:101DF00012BFFA2344F00804BE23AB6122462846F2
:101E00000621FFF701FD28460621FFF7C5FC031B4D
:101E10005842584170BD08B50621FFF7BDFC00F0DF
:101E20002800202804D0A0F108035842584108BDDA
:101E3000022008BD38B50C4600210546FFF7ACFC72
:101E400000F0F3022CB1012C0CBF42F0080242F06A
:101E50000C022846BDE838400021FFF7D5BC38B554
:101E600000210546FFF798FC044601212846FFF7AC
:101E700093FC230700D420B114F0040F14BF0220F8
:101E8000012038BD10B50446FFF754FD0146204639
:101E9000FFF754FD204631490A220223FFF786FD51
:101EA00020462F490C220423FFF75EFD20462D49D2
:101EB00010220123FFF77AFD20462B491122062329
:101EC000FFF752FD0122204613462849FFF74CFD3B
:101ED0002046274902220123FFF746FD20462549D7
:101EE00005220123FFF740FD204623490622012356
:101EF000FFF73AFD2046214900220123FFF734FD78
:101F000020461F491C220223FFF72EFD2046FFF723
:101F100082FF02461B4B1C4853F8221000F0B8F910
:101F2000A2791A4B1A4853F8221000F0B1F9204652
:101F3000FFF795FF0246174B174853F8221000F0A1
:101F4000A7F92046FFF73DFFBDE810400246134BBE
:101F5000134853F8221000F09BB900BFB04C0000AA
:101F6000BD4C0000CA4C0000D34C0000DE4C000009
:101F7000E54C0000EF4C0000F64C0000FF4C000068
:101F8000074D00001C4C0000154D00007C4D00006A
:101F9000274D0000C44B0000364D0000FC4B0000F4
:101FA000494D000002F00F0242EA0112D2B20421B0
:101FB000FFF72ABC10B588B000210D2204A802F05A
:101FC0007EFC01240B22002101A88DF8104002F0B4
:101FD00076FC0223234821468DF80A30FEF780FD67
:101FE0004FF6FF7320480021C36101AAFFF792FA60
:101FF00000238DF812301C4804A9FFF745FA1B484E
:10200000FEF7BAFC9DF81230194AD8400133DBB212
:102010000A2B10608DF81230144602D8154B9842E6
:10202000E9D81548FEF7A8FC144B2268B3FBF0F37F
:1020300013480021E2FB0301124A002301F032F8A9
:10204000114B094A1860114B00201870D36823F017
:102050001003D3600E4B0422C3F880211A6008B02D
:1020600010BD00BF00520400000001404081040088
:10207000E800002080841E005000020000B0710BB8
:1020800020A1070040420F00E4000020EC000020E7
:1020900000E100E013B51F4B1F4A19680023E1FB64
:1020A0000023104619461D4A002300F0FBFF4FF69F
:1020B000E85200238B4208BF824215D2184B5A6A5D
:1020C00092B24FF6E754164B5B6A9BB2ADF8043000
:1020D000BDF804309B1A9BB2A342F2D9114A4FF0CB
:1020E000FF3380185941E2E750EA01030ED00C4B50
:1020F0005A6A92B20A4B84B25B6A9BB2ADF8063060
:10210000BDF806309B1A9BB2A342F3D3002002B065
:1021100010BD00BFE800002020A1070040420F00D2
:10212000000001401802FFFF054B1A69D20641BFAB
:1021300010229A61034B012248BF1A70704700BFFA
:1021400000000140EC00002010B51F4C012120468A
:10215000FFF778FC20460321FFF71CFE20460021F4
:10216000FFF736FE20460121FFF70EFE0F22204624
:102170000221FFF717FF20460421FFF79FFD0121F1
:102180002046FFF757FE2046FFF764FC0AA3D3E979
:1021900000232046FFF743FD09A3D3E9002320468F
:1021A0000121FFF753FD2046FFF7B4FD2046BDE8AF
:1021B0001040FFF767BE00BF909356DF000000009D
:1021C000A4B104AC00000000F00000207047000043
:1021D00008B511200221FEF769FA01210A46022002
:1021E000FEF7C8FC11200421FEF7F6FC0D48012182
:1021F000FEF776FC0C48FEF7BFFB4FF47A73B0FB9A
:10220000F3F00138B0F1807F0AD2084B084AE02190
:10221000586082F8231000229A6007221A6008BDD5
:10222000FEE700BF00D204005000020010E000E012
:1022300000ED00E008B50420024600210123FEF76E
:10224000F9FE01210A4600230420FEF7F3FE40F2C6
:102250000312014B5A6508BD00E00040FFF71ABFAA
:10226000014B1868704700BF14010020024A136830
:1022700001331360704700BF14010020034B19683D
:102280001A68521A8242FBD3704700BF1401002023
:102290000FB404B070470FB404B070470148FFF7A3
:1022A0000FBC00BFF00000200148FFF737BC00BFA3
:1022B000F000002038B505460C460948FFF742FCFF
:1022C0000028FAD00648FFF7C5FB224629460448F5
:1022D000FFF780FC04460248FFF71CFD204638BD8E
:1022E000F00000202DE9F041074688460E48FFF730
:1022F00029FC0028FAD00D4B1C461E6823689B1B46
:10230000B3F5FA7F0BD20848FFF77BFC054600289F
:10231000F4D0054839464246FFF776FC00E0002538
:102320002846BDE8F08100BFF00000201401002025
:1023300038B50546074C2046FFF78CFB20466A68F7
:1023400000230121FFF782FC2046BDE83840FFF75B
:10235000E1BC00BFF000002013B5094C2046FFF798
:1023600091F920460749084A02F032F90321009109
:1023700004220B460548FFF757FB02B010BD00BF13
:10238000100100207516000000000020F000002061
:102390000C4B19680A88C2EB20135B435200C2EB56
:1023A000E000B1F902201B135043B1F9042053435C
:1023B0009B1303EBE020886100EB8000803000126B
:1023C000704700BF1801002070B5284B40421968C3
:1023D0008A69B1F90E305210A2F57A429410644322
:1023E0005343B1F91060E5125B0006FB0535B1F906
:1023F0000A3064136343B1F908406243521002EBA0
:10240000E3039B14CA8803F500435343B1F90C203E
:10241000DB13120402EBA50540F63542A0EB253094
:10242000504300F1434000F5A000002804DBD3B185
:102430004000B0FBF3F303E0ABB1B0FBF3F35B00A0
:10244000DA085243B1F91600520B4243B1F91400B5
:102450009C086043401300EB2232B1F912000244A1
:1024600003EB221070BD184670BD00BF180100209C
:1024700073B500230093ADF80430144B05461B6878
:102480000C46F3B15E6A587F6A460623F721B047CF
:102490009DF800309DF801201B0343EA02139DF8CC
:1024A000022043EA12132B609DF803309DF80420AC
:1024B0001B0343EA02139DF8052043EA121323602D
:1024C00000E0812040B202B070BD00BF18010020C2
:1024D00073B50023009301930B4B05461B680E4612
:1024E0006BB101A96846FFF7C3FF04460198FFF7E7
:1024F0004FFF30600098FFF767FF286000E08124FD
:1025000060B202B070BD00BF1801002030B587B0C6
:10251000344C68460021182202F0D1F92368002BC0
:102520005BD05D6A587F88216A461823A8479DF8CA
:1025300001109DF80020236842EA01221A809DF9CB
:1025400003109DF8022042EA01225A809DF90510ED
:102550009DF8042042EA01229A809DF807109DF818
:10256000062042EA0122DA809DF909109DF8082030
:1025700042EA01221A819DF90B109DF80A2042EAD5
:1025800001225A819DF90D109DF80C2042EA01228A
:102590009A819DF90F109DF80E2042EA0122DA81FE
:1025A0009DF911109DF8102042EA01221A829DF92E
:1025B00013109DF8122042EA01225A829DF915104B
:1025C0009DF8142042EA01229A829DF917109DF885
:1025D000162042EA0122DA8200E0812040B207B0F0
:1025E00030BD00BF1801002073B5144D00238DF8D5
:1025F0000730286005242B68D0215E6A587F0DF1D2
:1026000007020123B0479DF80730563B022B08D93B
:102610000A4B013C1B68E4B29B6A01209847002CDE
:10262000E9D12B689DF807201A770CB9FF2001E04B
:10263000FFF76CFF40B202B070BD00BF1801002070
:1026400073B5134C00238DF8073023680546D3B1CA
:102650005E6A587FF4210DF107020123B04798B953
:102660009DF80730F42103F01F0343EA45138DF86A
:10267000073023680DF107021E6A587F0123B04717
:1026800023689D7700E0812040B202B070BD00BF9A
:102690001801002013B500238DF807300C4B196882
:1026A00081B1032810D88B7FCA7F5B0103EB8203C3
:1026B000184402AA02F8010D0C6A487F0123F42194
:1026C000A04702E0812000E0FE2040B202B010BD31
:1026D0001801002073B5134D00238DF807302B68C7
:1026E0000446D3B15E6A587FF5210DF1070201233C
:1026F000B04798B99DF80730A00023F01C0300F004
:102700001C0018432B688DF807001C6A587FF521C0
:102710000DF107020123A04700E0812040B202B082
:1027200070BD00BF1801002073B5284C00238DF840
:10273000073023680546002B42D0042842D85E6A41
:10274000587FF4210DF107020123B04700283AD148
:10275000013D032D03D8DFE805F0060B10152368B3
:1027600001229A7712E0236801229A7702220DE073
:10277000236801229A77032208E0236801229A77CE
:10278000042203E0236802229A770522DA7721687F
:102790009DF807308A7F03F01F0343EA421323F0BA
:1027A0001C02CB7F0C6A9B0003F01C0313438DF8C3
:1027B0000730487F0DF10702F4210123A04702E012
:1027C000812000E0FE2040B202B070BD1801002060
:1027D0007FB5044601212448FEF782F92368234A85
:1027E000934205D002F5806293423AD1204800E03E
:1027F00020480121FEF774F9207961790A2201232A
:10280000FEF718FCE179A0790A220123FEF712FCF9
:10281000267909216379012202FA03F524237343FF
:1028200003F1804303F5C0431D6103F11000637998
:10283000013902FA03F34360ECD1237A20681B02CA
:1028400043F003038363236969460293E3688DF8C9
:1028500000200193237D8DF801208DF80C30FEF7C8
:1028600057FC04B070BD00BF4081040000A00040D0
:1028700000C2040000B2040038B50546FEF750FD62
:10288000054C40B2012805D1013C03D02846FEF793
:1028900057FCF6E738BD00BFE19304002DE9F04F87
:1028A000254B03F1A00100225A711A79002A3ED06B
:1028B00053E906894FF0000BCB4508BF404506D2CF
:1028C000B8EB000469EB0B0543E906452FE0DA7924
:1028D0000AB91A7127E053E9046718EB060453F8A4
:1028E000086C49EB0705241A65EB0B05002E43E93C
:1028F000064553F8042C08DD3244F32A43F8042C2F
:1029000011D9013445F1000508E0921BF32A43F880
:10291000042C08D914F1FF3445F1FF3543E906458D
:10292000F43A43F8042C1A680AB101225A71283388
:102930008B42B8D1BDE8F08F3801002038B5074C84
:102940000025637F1BB1A3692846216A984701359A
:10295000042D04F12804F4D138BD00BF200100206B
:10296000F8B500244FF0FF324FF0FF331B4D2544E4
:10297000297F39B1D5E900679F4208BF96423CBF25
:1029800032463B462834A02CF0D1154C0021217052
:10299000591C08BFB2F1FF3F26461ED01149124C08
:1029A00000259D42097808BF944238BF22460F4C4B
:1029B00019B920F07F41216000E020600C4C022317
:1029C0008118A361002021F07F41FEF721FD012342
:1029D0003370E36943F00203E361F8BD2001002096
:1029E0001C0100201E0100209BFFFF00C4010020ED
:1029F0000000084038B50546FEF7E2F900230A4911
:102A0000282202FB0312947F24B10133042BF6D158
:102A1000064C05E01DB1012191772B6000E0044CCC
:102A2000FEF7D2F9204638BD20010020011000F049
:102A3000041000F038B51A4B1C7874BB01251948F6
:102A400029461D70FEF74CF817480221FEF7C4F81E
:102A500016480821FDF72AFE29461448FEF740F8DB
:102A60001348FEF7E1FC134BDA6922F00702DA6142
:102A700007229A61FEF7E6FC0F4B4FF08042C3F845
:102A800080210E481A602146A02201F018FF0C4B4D
:102A90001C700C4B1C700C4B1C60002038BD00BF20
:102AA0001D0100200043020002001A006016100001
:102AB0008A4D00000000084000E100E020010020F5
:102AC0001E0100201C010020C00100202DE9F74F4D
:102AD0000328054689469346984600F2D180FEF7C2
:102AE0006FF9694E4FF0280A0AFB056A9AF81E2012
:102AF00007461AB9FEF768F96448C2E0BBF1000F57
:102B000007D1B8F1000F00F0B68028460C99C047F5
:102B1000B1E05F4A4FF400434FF47A6000215468FB
:102B2000E3FB0B01CAF818804FF4FA52002300F0BF
:102B3000B9FAB9F1010FCAE902010CD14FF47A7365
:102B400003FB0BFBF42303FB10B07A23CAF810003D
:102B5000CAF8143005E010F1FF3041F1FF31CAE945
:102B60000201282101FB05610846D1E90223013257
:102B700043F10003E0E806234FF0010E80F804E083
:102B800080F807900C98086242490978002972D1B0
:102B900041498846086801301EBF09680131C8F8FC
:102BA00000103E4908788946D8B93D48384D24F090
:102BB0007F41016002213B48A9610021994208BF81
:102BC000904238BF0246A118002021F07F41FEF755
:102BD0001FFCEB6943F00203EB61012389F800302D
:102BE00042E0D8F80030012B3ED1282303FB0563D7
:102BF0004FF0000A83F81CA0254ADFF8A4B0D3697F
:102C000023F00203D361DBF800006FF07F43201A4A
:102C100020F07F40984208BF0020FFF73FFEFFF7FB
:102C20008DFEBAF1000F04D1282303FB05630122B6
:102C30001A772046FFF794FE154B00205C68DBF8FE
:102C400000300AF1010AE31A23F07F420192FEF7F5
:102C5000D1FBDBF80030C01A99F8003020F07F403B
:102C600013B1019A8242C7D8D8F800300A4A13B18A
:102C70001368013B13603846FEF7A6F8002000E019
:102C8000094803B0BDE8F08F20010020031000F0D8
:102C9000000008401E010020C00100201C0100208F
:102CA000C40100209BFFFF00021000F038B503288C
:102CB000044612D8FEF784F8094B282202FB04349C
:102CC0001834A3791BB9FEF77FF8064838BD0025F4
:102CD0002571FEF779F8284638BD034838BD00BF96
:102CE00020010020031000F0021000F02DE9F04157
:102CF000FEF766F81D4B0746DA6919690A4022F0AB
:102D00000301920799612BD5194D01225E682A7043
:102D1000164CDFF86480E36923F00203E361D8F81E
:102D20000000301A20F07F40FFF7B8FDFFF706FEE5
:102D30003046FFF715FE6668D8F800300020F31A19
:102D400023F07F44FEF756FBD8F80030C01A094B39
:102D500020F07F401B780BB18442D9D800232B7020
:102D60003846BDE8F041FEF72FB800BF000008402C
:102D70001E0100201C010020C401002030B589B0D4
:102D8000ADF80C1008A901F81C3D0123154604916B
:102D90000422ADF81430022402AB03A9ADF80E20D2
:102DA0000693ADF81C40FFF767FD10B100232B60C0
:102DB00009E020469DF809309DF8082003F0FC0347
:102DC00003EB02232B6009B030BDF8B51C46E523A8
:102DD00007460E461546FFF7D1FF022802D04FF0F6
:102DE000FF30F8BD43F609532A68384653435B0B5E
:102DF000A3F5BB53103B2B6031462246E023FFF77F
:102E0000BDFF0228EBD145F2CD5322680020534389
:102E10005B13A3F53743023B2360F8BD10B588B0C0
:102E20000423ADF80E30FC238DF80030C9238DF853
:102E300001300223ADF8143001ABADF80C1006934D
:102E400003A908231446CDF810D0ADF81C30FFF7C5
:102E500013FD20B92CB19DF80430237001E000204F
:102E600000E0012008B010BD10B5124B04461B68ED
:102E700003B19847631E032B14D8DFE803F002095F
:102E80000D110D4A136923F00403136130BF09E0EB
:102E90000120FEF731F805E00120FEF763F801E0BC
:102EA000FEF7A6F8054B1B681BB12046BDE8104095
:102EB000184710BDCC01002000ED00E0C801002043
:102EC00010B50A4B0A4C18600A4B00221A705A704F
:102ED0002160FEF779FAC30507D5FEF75DFA23688E
:102EE0001BB1BDE810400420184710BDCC010020E4
:102EF000C8010020D0010020831EDAB2012A09D8BF
:102F000005490228CA5C02F10102CA5402BF034B00
:102F100001221A60704700BFD001002004008C43DA
:102F2000054B1A782AB95B78002B14BF02200320C6
:102F300070470120704700BFD001002038B5FDF771
:102F40003FFF0546FFF7ECFF431EDBB2022B0446B2
:102F500002D8FFF789FF00E000242846FDF734FF80
:102F6000204638BD064880470649074A074B9A4223
:102F7000BEBF51F8040B42F8040BF8E7FDF7DCF88C
:102F80008930000024510000000000208000002053
:102F9000FEE700BF00487047006CDC02234AD36A9A
:102FA00003F47053B3F5805F34D0B3F5005F04D001
:102FB000B3F5006F04D11E4B00E01E4B1B682DE0E3
:102FC000D36803F4E063B3F5007F16D008D8B3B13B
:102FD000B3F5807F1CD1184B184AD86C184B12E0FF
:102FE000B3F5806F07D0B3F5A06F16D0B3F5407F6F
:102FF0000ED1144B12E0144B10E0144B0EE00E4BAC
:10300000134AD86C134BB0F1985F28BF134605E004
:10301000002303E04FF4004300E00F4B034A106825
:10302000C0F382300130B3FBF0F0704700800C40F9
:103030000800002004000020B081E00F40B56400CB
:10304000C0CF6A00809FD500406F4001C0D8A70064
:10305000804F120040420F00003FAB0108B5FFF760
:103060009DFF044B5B6803F00F03D840024B1860D0
:1030700008BD00BF00800C40D8010020014B18683B
:10308000704700BF0800002070474FF400407047B1
:103090004FF47A7070470000014B1868704700BF0A
:1030A0000400002053B94AB9002908BF00281CBFFA
:1030B0004FF0FF314FF0FF3000F0FABF82B0EC4626
:1030C0002DE9005000F01EF8DDF804E002B00CBC61
:1030D000704700BF2DE9F041069C904606460F461A
:1030E0001D4600F0E7FF08FB01FCA8FB002300FBE6
:1030F00005C5B21A2B4467EB03038646C4E90023D7
:10310000BDE8F0812DE9F843089E174680468946C0
:103110001D4601F025F900FB05F3A0FB074507FB61
:103120000137B8EB04043D4469EB0505C6E90045E9
:10313000BDE8F88303685A004CBF43F0004323F016
:1031400000431844704700BF2DE9F04F83B099B396
:103150004B1E1746054698460193002606EB0804C9
:1031600004EBD47464104FEAC40A05EB0A0B58460A
:10317000FFF7E0FF019B8146A3420AF108002844C3
:103180000ED0FFF7D7FFB94500F1FF3004D9B442A4
:103190000CD004F1FF38E1E7B84203D2661CDDE74A
:1031A000B945F4D8584603B0BDE8F08F4FF0000B96
:1031B000584603B0BDE8F08F8B46584603B0BDE8D3
:1031C000F08F00BF012807D0022807D0044B002849
:1031D0000CBF1846002070470248704702487047ED
:1031E000D9380000DD380000E138000030B5254B4B
:1031F00083B004468D1E7BB3284601A9AFF300803F
:1032000020B301992A46FFF79FFF0546F0B1FFF76B
:1032100091FF6B68A064012B12D0002B05F1040014
:1032200021DBFFF787FF0023E06423650368002BA1
:103230001DDBFFF77FFF00232061184603B030BD80
:10324000002323610523184603B030BD002323610A
:103250000923184603B030BD0B490C4B0846591AD8
:10326000C9100191CEE70123E0642365DEE7C3F3D3
:103270000360FFF7A7FF002820610CBF092300238C
:10328000DBE700BF00000000EC4E0000245100000E
:10329000036810B5DA07044606D49B0700F148001E
:1032A00009D500F085FC2368590709D51A070ED502
:1032B000DB0613D510BD00F073FC23685907F5D465
:1032C00004F1D00000F07CFC23681A07F0D404F568
:1032D000A87000F07DFC2368DB06EBD404F5E870F1
:1032E000BDE8104000F0B8BC03680BB1184470474B
:1032F0001846704709207047704700BF70B50446F4
:103300000D4608E02A6C23696261012021462A46A5
:103310009847082808D12046296CFFF767FF064622
:103320000028EFD001F069FA0728FBD13046296C5C
:10333000FFF7E2FF281D00F027FC00BF2DE9F04752
:103340000646ADF5727D03AD0C1D17460FCC0FC5BB
:103350000FCC0FC50FCC0FC594E80F0002AC4FF097
:10336000000ED6F80C80D6F8189085E80F0030468D
:10337000216CC4F800E0FFF739FF0546002F0CBFB1
:1033800009270A277DB1A36B47F010018DE81002D1
:103390000120636432463346C04778BB28460DF5AA
:1033A000727DBDE8F087236C214673614FF4F072A3
:1033B0007AA801F079FA336931467AAA38469847F3
:1033C000889B82468DE810023946636401203246AC
:1033D0003346C04790B920467AA94FF4F07201F005
:1033E00063FABAF1080F06D13046216CFFF7FEFEF2
:1033F00009270546C6E7BAF1070F04D009200DF5E5
:10340000727DBDE8F0872846216CFFF775FF03A8A1
:1034100000F0BAFB406C7047F0B5CB6BF9B00B64B1
:103420000E1D01AD0F4604460FCE0FC50FCE0FC5C2
:103430000FCE0FC596E80F004FF0FF3685E80F005E
:10344000009606E0236921466A4698470828054603
:1034500008D120461099FFF7C9FE0028F2D00920B4
:1034600079B0F0BD6846FFF713FF062DF7D120466F
:103470003946FFF743FF00BF30B4DD6BC1608261A6
:1034800019461D64002230BC58E700BF70B543697F
:10349000C66804460D460B6426B10122FFF74EFFB5
:1034A00001F0ABF90369214602202A469847072814
:1034B00007D0082803D120462946FFF71FFF01F057
:1034C0009CF93046296CFFF717FF281D00F05CFBC4
:1034D000C26832B110B4CC6B00220C645DF8044BAE
:1034E0002CE799E7704700BF836813B101460120BC
:1034F0001847704700B5042907D8DFE801F0030931
:10350000060909000BB90F2A05D902205DF804FB52
:1035100001205DF804FB00EB820252681846019B13
:103520001A605DF804FB00BF00B585B00A4603AB26
:10353000002100930B46FFF7DDFF039805B05DF80F
:1035400004FB00BF00B5042907D8DFE801F0030938
:10355000060909000BB90F2A05D902205DF804FB02
:1035600001205DF804FB019900EB8202096818460E
:1035700051605DF804FB00BF10B50C4684B004AB8D
:1035800043F8042D0021009322460B46FFF7DAFF93
:1035900004B010BDF0B5D36BADF50F7D1364151DF0
:1035A00017AC07460E460FCD0FC40FCD0FC40FCD7D
:1035B0000FC495E80F004FF0FF3584E80F00169513
:1035C00011E016A86A46FFF7D7FF16A83146B8479C
:1035D00080B9049B0820694616AA98470528044626
:1035E00009D0092806D026996846FFF7FFFD0C216F
:1035F0000028E6D0092416A8FFF74AFE20460DF55C
:103600000F7DF0BD2DE9F04FCC6C904622688BB059
:1036100004340D460792089400F003091E46002B5F
:1036200064D11202032307928DF825608DF82430AF
:103630002B6DB9F1020F08BFAC6B13F0010343D13E
:1036400000F00800C2B2039201932768002F3DD01A
:10365000022E47D02788B4F802A00434AB6C2AF0BD
:10366000010B40460F219B44FFF75EFF834537D88F
:1036700027F001039B4458452CBF002001200AF08D
:10368000010A07F0010747EA4A0ABAF1010F43D0DD
:103690003AD3BAF1020F1FD1236823F000420292FD
:1036A000B9F1000F7BD138B1039A002A00F0838072
:1036B000029A002A00F0A680002B7ADB029B03F11D
:1036C000010A04EB8A04C0E700230193022E40DDC7
:1036D000FFF710FE002842D009200BB0BDE8F08FA4
:1036E0000020CCE7D4F804A00834B7E7022B9FDC15
:1036F000130CDFB2120402218DF8253004EB87048D
:1037000007928DF8241093E7B9F1000F02D000283A
:1037100040F0AD80043498E7B9F1000F26D1B0B184
:1037200094E80C00D70F9A1CD6D005F1580201334B
:10373000069200F09280201DFFF7D6FD3A46014622
:1037400006AB2846AFF30080002840F0B58008346F
:103750007BE7404607A900F019FB0028BCD1019B7C
:10376000002B59D108200BB0BDE8F08F40460D2149
:103770002F6AFFF7D9FE8742E9D1AB6A9C42E6D1B6
:103780002046FFF7D7FC0F2102464046FFF7F4FE24
:1037900040462A460021FFF7EFFE07209DE74046FE
:1037A0000D212F6AFFF7C0FE874245D02368002B0A
:1037B00084DA043482E7029B23B305F158030596AB
:1037C000039F04F1040ADDF808B0CDF810901E46FE
:1037D00002E0D9454F4615D050460696FFF784FDC6
:1037E0000022014606AB2846AFF3008007F101092D
:1037F0000AF1040A0028ECD0029BDDF810909F42E9
:10380000059ED3D140460D21FFF78EFE069B286210
:10381000AC626B62062060E70F214046FFF784FE32
:103820000E2102464046FFF7A7FE40460F21294AD7
:10383000FFF7A2FE072050E7AB6A9C42B6D10422F4
:1038400002990027A318A962EF622A636B632368B9
:10385000BB421FDB0123019330E740460D21FFF7F8
:1038600063FE2862069B6B62AC62062035E7204649
:10387000FFF760FC04340646AC632846AFF30080D3
:1038800000283FF429AF404632460F21FFF774FE6F
:10389000072022E70846013004EB8000FFF74AFCCE
:1038A0000F2102464046FFF767FE404639462A464A
:1038B000FFF762FE072010E707460D214046FFF79D
:1038C00033FE022F2862CDD12B46069A43F82C2FC7
:1038D0006B62C9E700000000002393E6012391E634
:1038E00002238FE6F0B50546C5B004290CD8DFE801
:1038F00001F056030B300E00012B4FEA124496B232
:1039000065D0052B00F08380022045B0F0BD002B70
:10391000FAD1102AF8D82B68DC0600F1E98022AE33
:103920003046019200F0A2F9A86B019A002301240D
:1039300004FA03F1114203D00168043046F8231061
:103940000133042BF4D1A863304600F085F9002040
:10395000DBE7032BD8D1140C97B23B19102BD3D82B
:103960002B681E0700F1E48022AE30467F0000F095
:1039700051F906EBC4027B1EAC6B57B12146043AE9
:1039800051F8040B013B42F8040F581CF8D104EB2A
:1039900087043046AC6300F01BF90020B5E7002B2C
:1039A000B2D1AC6B97B2281D012606FA03F1394259
:1039B00003F1010302D0216804340160102B00F1EF
:1039C0000400F2D112F400501FD1AC639DE732190C
:1039D000102A99D80F2C97D829680027C80754D4E3
:1039E00022A8019300F0E0F8019B19E00846374651
:1039F000012B00F097800F2CA86302D822A800F0BA
:103A0000D7F817B102A800F0DBF800207DE73719DE
:103A1000202F3FF679AF0F2C30D93746002E44D1F6
:103A2000A96B3246002EE1D000278E4644A84FEA0B
:103A3000420C00EBC4000CF1FF328C385EF8046BD2
:103A4000013A40F8046F561CF8D101EB8C00002FAE
:103A5000CED02246102C44A938BF102201EBC2025E
:103A6000A2F5C47201467800043A01EB800051F8D7
:103A7000046B814242F8046FF9D1B9E7102F41D9A4
:103A80002A68103FD007114610D521F00102052BFE
:103A90002A60019328465BD021F0030140F8481BBF
:103AA00000F082F8019B002F4AD02A6851075BD4AE
:103AB000012B63D00F2C04D822A8019300F07CF8CE
:103AC000019B002FACD002A8019300F07DF8019B70
:103AD000C4F11002002AA96BA7DC2246102C44A8CE
:103AE00038BF102200EBC202A2F5C4727800BBE717
:103AF00023F010032B6005F5E870019200F0B6F892
:103B0000019A0CE72968C8071DD5284621F0010253
:103B100042F0020240F8482B0193002700F04CF8D5
:103B2000019BC9E70430A86322A800F039F86CE7CC
:103B300023F008032B6005F5A87000F06BF813E77D
:103B4000012B3FF44DAF0F2C98BF0027B4D967E786
:103B500042F0020240F8482B00F02EF8019B002FA3
:103B6000AAD02A685107A5D5284622F0040240F8B9
:103B7000D02B019300F028F8019B99E722A801932C
:103B800000F012F8019BA3E700F1340191E838003E
:103B90009C46A6464CF8045D90E8FF0FE54600BD44
:103BA00090EC210B704700BF80EC210B704700BFE9
:103BB00090EC200B704700BF80EC200B704700BFDB
:103BC000D0EC200B704700BFC0EC200B704700BF4B
:103BD000F0EC0201F0EC0211F0EC0221F0EC023109
:103BE000F0EC0241F0EC0251F0EC0261F0EC0271F9
:103BF000F0EC0281F0EC0291F0EC02A1F0EC02B1E9
:103C0000F0EC02C1F0EC02D1F0EC02E1F0EC02F1D8
:103C1000704700BFE0EC0201E0EC0211E0EC022191
:103C2000E0EC0231E0EC0241E0EC0251E0EC026138
:103C3000E0EC0271E0EC0281E0EC0291E0EC02A128
:103C4000E0EC02B1E0EC02C1E0EC02D1E0EC02E118
:103C5000E0EC02F1704700BFB0FC0181B0FC0191C3
:103C6000B0FC01A1B0FC01B1704700BFA0FC018114
:103C7000A0FC0191A0FC01A1A0FC01B1704700BF14
:103C8000EC4600B52DE900502DE9FF1F4FF0000371
:103C90002DE90C0001A9FFF7BFFBDDF840E012B0F1
:103CA000704700BFEC4600B52DE900502DE9FF1F1D
:103CB0004FF000032DE90C0001A9FFF7E7FBDDF849
:103CC00040E012B0704700BFEC4600B52DE900504F
:103CD0002DE9FF1F4FF000032DE90C0001A9FFF7AC
:103CE000F7FBDDF840E012B0704700BFEC4600B5CE
:103CF0002DE900502DE9FF1F4FF000032DE90C00C6
:103D000001ABFFF7B9FBDDF840E012B0704700BF30
:103D1000EC4600B52DE900502DE9FF1F4FF00003E0
:103D20002DE90C0001AAFFF735FCDDF840E012B0E8
:103D3000704700BF037A1BB9437A43B9B02070477C
:103D40005A1E036802721A020260180E7047426817
:103D5000013B10B4437213680321141D01721A024F
:103D6000446002605DF8044B180E704700B585B0E2
:103D700003AB002100930C220B46FFF7BBFB03981B
:103D800005B05DF804FB00BFF0E700BF2DE9F0438C
:103D900006460D4685B04FF000082846FFF7CAFFDB
:103DA000B028044600F0B58020F07F0111F0FF013B
:103DB00020D000F0F003802B7AD0902B36D0A02BAF
:103DC00049D0B02B5CD0C02B00F0898000F0F80304
:103DD000D02B0BD100F00702013242F40022304612
:103DE00001210523FFF77EFD0028D6D0092005B06C
:103DF000BDE8F0830DF10C090B468700CDF800906B
:103E000030460D22FFF776FBFFB2039B04376006B6
:103E10004FF000014CBFDF1BFF18CDF800900B46A0
:103E200030460D220397FFF78DFBB6E700F00D0338
:103E30000D2BDBD003AF002100F00F020B460097E3
:103E40003046FFF757FB002100970B4630460D2206
:103E5000FFF778FBA1E7C3434FF47F6203F007034A
:103E60001A41010702F47F624FF0000148BF42F49B
:103E700080420B463046FFF735FD0028B6D18CE76F
:103E8000B1284CD0B2285DD0B32800F08A8000F071
:103E9000FC03B42BAAD000F007020132012142F446
:103EA00000220B463046FFF71DFD00289ED174E727
:103EB0002846FFF73FFF24022043B0F5004F95D07E
:103EC00004010021A2B20B463046FFF70BFD00288B
:103ED0008CD114F4004F18BF4FF001085DE7C628DD
:103EE00072D0C7287AD000F0F803C02B00F0898088
:103EF000C82800F0A580C9287FF478AF2846FFF7CE
:103F000019FF00F00F02013200F0F00042EA003227
:103F100065E7B8F1000F00F08280002067E72846CF
:103F2000FFF708FF024600283FF460AF10F0F001F1
:103F30007FF45CAF30460B46FFF7D4FC00287FF4DB
:103F400055AF2AE700210DF10C090D220B46CDF8E3
:103F500000903046FFF7CEFA2846FFF7EBFE020648
:103F60004FF002040CD5039B00F07F00A0400344F7
:103F700028460393FFF7DEFE030604F10704F2D49C
:103F8000039B00F07F00A04003F5017300211C1883
:103F9000CDF800900B4630460D220394FFF7D2FA7D
:103FA000FBE62846FFF7C6FE00F00F02013200F0E4
:103FB000F000012142EA00320B463046FFF792FC46
:103FC00000287FF413AFE8E62846FFF7B3FE00F0C1
:103FD0000F02013200F0F0000321EBE72846FFF763
:103FE000A9FE024600283FF401AF10F0F0037FF471
:103FF000FDAE30460421FFF775FC00287FF4F6AED5
:10400000CBE600F00F020132032142F420220B46DE
:104010003046FFF767FC00287FF4E8AEBDE603AC4E
:1040200041460E22434600943046FFF763FA00945F
:10403000304641460F224346FFF784FA4046D6E613
:104040002846FFF777FE00F0F00200F00F03103271
:10405000013343EA0232C2E610B5C36C84B00320D8
:104060005A688DF80C00DC7912020833084601A961
:1040700001928DF80D400293FFF788FE04B010BD49
:1040800008B5FFF781FE806C08BD00BF08B5FFF7DB
:104090007BFEC36CD87903EB8000083008BD00BFFD
:1040A00008B500F0AAFB00BF08B500F0A6FB00BFF2
:1040B000704700BF00292DE9F043C0F2A880002618
:1040C000002BC0F29E8081468E4690469C46174645
:1040D00004460D46002B3DD18A4259D9B2FA82F3EB
:1040E0003BB1C3F120029D4020FA02F29F401543EC
:1040F0009C40390CB5FBF1F01FFA87FE01FB10550F
:104100000EFB00F3220C42EA0545AB4209D9ED193A
:1041100000F1FF3280F00B81AB4240F2088102389F
:104120003D44ED1AB5FBF1F301FB13550EFB03FE05
:10413000A4B244EA0545AE4508D9ED1903F1FF32B2
:1041400080F0F780AE4540F2F480023B43EA004342
:10415000002203E08B420FD900221346341C18BF03
:10416000012460424FF0000565EB45015840514085
:1041700000196941BDE8F083B3FA83F2002A40F0E8
:1041800089808B4202D3804500F2E2800123E5E77B
:1041900012B90123B3FBF2F7B7FA87F8B8F1000FB1
:1041A0003BD1ED1B4FEA174C1FFA87FE0122B5FBEE
:1041B000FCF00CFB10550EFB00F3210C41EA054509
:1041C000AB4207D9ED1900F1FF3102D2AB4200F248
:1041D000C3800846ED1AB5FBFCF30CFB13550EFB30
:1041E00003FEA4B244EA0545AE4507D9ED1903F133
:1041F000FF3102D2AE4500F2AD800B4643EA0043E8
:10420000ACE752426FEA060663EB43035BE74042CA
:1042100061EB41014FF0FF3652E707FA08F7C8F1AA
:10422000200225FA02F34FEA174CB3FBFCF11FFA08
:1042300087FE0CFB113324FA02F205FA08F50EFB97
:1042400001F92A43100C40EA0343994504FA08F4A3
:1042500007D9DB1901F1FF3078D2994576D90239B7
:104260003B44C9EB0303B3FBFCF00CFB10330EFB28
:1042700000F592B242EA03439D4207D9DB1900F1EF
:10428000FF325FD29D425DD902383B445D1B40EA5C
:1042900001428CE7C2F1200328FA03F10CFA02FC78
:1042A00041EA0C0C4FEA1C402EFA03F1B1FBF0F589
:1042B0001FFA8CF700FB151129FA03F30EFA02FE20
:1042C00007FB05F943EA0E0E4FEA1E4343EA01419C
:1042D000894508FA02F808D911EB0C0105F1FF3302
:1042E00032D2894530D9023D6144C9EB0101B1FBAD
:1042F000F0F300FB131107FB03F71FFA8EFE4EEAE3
:10430000014E774508D91EEB0C0E03F1FF3117D291
:10431000774515D9023BE64443EA0543A3FB0889E8
:10432000C7EB0E0ECE4509D305D0002216E7104686
:10433000F7E613460AE794404445F6D2013BF4E71A
:104340000B46E9E71046A1E71D46CEE7014688E7A0
:10435000134603E7023B51E702383D443AE700BF0A
:104360002DE9F043002B44D18A42154604464FD92B
:10437000B2FA82F70E464FB1C7F12003B94020FAD6
:1043800003F602FA07F50E4300FA07F42F0CB6FB0A
:10439000F7F01FFA85FE07FB10620EFB00F1260CFA
:1043A00046EA0243994209D95B1900F1FF3280F0D5
:1043B000EE80994240F2EB8002382B44591AB1FB4F
:1043C000F7F307FB13110EFB03FEA4B244EA01410D
:1043D0008E4508D9491903F1FF3280F0DA808E4505
:1043E00040F2D780023B43EA004000263146BDE858
:1043F000F0838B4247D8B3FA83F6002E48D18B4224
:1044000002D3824200F2CF8001203146BDE8F08322
:1044100012B90125B5FBF2F5B5FA85FCBCF1000F28
:1044200078D1491B2F0C1FFA85FE0126B1FBF7F04E
:1044300007FB10110EFB00F2230C43EA01418A42F4
:1044400007D9491900F1FF3302D28A4200F2BC8039
:104450001846891AB1FBF7F307FB13110EFB03FE95
:10446000A4B244EA0142964508D9521903F1FF313A
:1044700080F09180964540F28E80023B43EA0040F6
:104480003146BDE8F083002630463146BDE8F08372
:10449000C6F1200422FA04F5B3402B4321FA04F7B5
:1044A0004FEA1348B7FBF8FC1FFA83F908FB1C77A7
:1044B00020FA04FE01FA06F509FB0CF44EEA0505A4
:1044C0004FEA154E4EEA0747BC4202FA06F204D9FB
:1044D000FF180CF1FF3168D38C463F1BB7FBF8F493
:1044E00008FB147709FB04F9ADB245EA0741894599
:1044F00004D9C91804F1FF355DD32C4644EA0C44B5
:10450000A4FB0223C9EB0101994249D345D02046BF
:1045100000266BE7CCF1200405FA0CF521FA04F330
:104520002A0CB3FBF2F61FFA85FE02FB163820FABE
:1045300004F701FA0CF10EFB06F90F433C0C44EAB8
:104540000843994500FA0CF407D95B1906F1FF31CD
:1045500038D2994536D9023E2B44C9EB0303B3FB4D
:10456000F2F002FB10330EFB00F1BFB247EA034347
:10457000994207D95B1900F1FF3721D299421FD91F
:1045800002382B441746591A40EA06464EE71046B1
:1045900014E7134627E70B4670E7B0409042B6D2C7
:1045A000601E002622E7304620E7BC4294D9ACF1D9
:1045B000020C1F4491E789459FD9023C19449DE7AD
:1045C0003846DFE70E46C8E70238294441E700BF16
:1045D00003460846194600F017B900F05DB97FB5EB
:1045E000102302930368002415469E6900946B46CD
:1045F0008DF8044003941268B0479DF8043003F02E
:104600000603062B11BF2046009B01202B6004B03F
:1046100070BD009890420CBF06200120704700003A
:1046200010B50446024B036000F0CCF8204610BDE4
:10463000984D000010B50446FFF7F2FF2046FFF743
:10464000CCFF204610BD38B515461C4600F0BFF81B
:1046500020B10823E36006232560237138BD2DE9CE
:10466000F04106460C4615461F4600F0B0F848B922
:10467000032F07D82368204631462A46BDE8F0417B
:104680005B691847BDE8F0812DE9F041069E1F46A1
:10469000089B80469E421546099C03D1079900F06D
:1046A00096F848B94046394600F091F828B1012300
:1046B00026602571A37100E065710020BDE8F081DE
:1046C00010B50446024B0360FFF7AAFF204610BD59
:1046D000F84D000010B50446FFF7F2FF2046FFF743
:1046E0007CFF204610BD2DE9F041069E8046964293
:1046F0000F4615461C4603D1194600F068F858B914
:10470000D8F808003946036806961E6A2A462346EA
:10471000B446BDE8F04160470620BDE8F0812DE9D0
:10472000F14F0E4619468346174699460A9CDDF816
:104730002CA0DDF830800D9D00F049F878B1002EF6
:104740002C602F7106DB3444A0450CBF06240124E5
:10475000AC711EE002361CD10123AB7119E0444557
:1047600004D15846514600F032F888B9DBF8080009
:10477000314603680A94CDF82CA0CDF830800D9511
:10478000DC693A464B46A44601B0BDE8F04F6047AD
:104790006F71002001B0BDE8F08F2DE9F0410446B3
:1047A0000F4616461D46FFF74EFF48B9A06839462A
:1047B000036832469C692B46A446BDE8F041604739
:1047C000BDE8F081704700207047002070478142AB
:1047D00008B50ED0406803782A2B0CD049680B78B6
:1047E0002A2B08BF013100F0FBF8B0FA80F0400935
:1047F00008BD012008BD002008BD08B5062000F056
:10480000D3F8012000F006F938B5054604480C46F7
:10481000134620B1022029462246AFF3008038BD5E
:104820000000000008B5074B044613B10021AFF3A8
:104830000080054B1868836A03B19847204600F052
:10484000E9F800BF00000000684E00000E4B70B594
:104850001E460E4C0025E41AA410A54204D056F8BA
:10486000253098470135F8E700F0D6F8084B094C99
:104870001E46E41AA4100025A54204D056F825309F
:1048800098470135F8E770BD7000002070000020E7
:104890007000002078000020024B0146186800F0EC
:1048A00017B800BF6C00002010B5431E0A449142A7
:1048B00004D011F8014B03F8014FF8E710BD03468F
:1048C0000244934202D003F8011BFAE7704700004C
:1048D00030B500293CD051F8042C0B1F1D49002A8B
:1048E000B8BF9B180A680C4612B95A600B6030BDFD
:1048F00093420DD219685818904201BF5A58521865
:104900001A60426823605A6030BD994203D80A4653
:1049100051680029F9D1146815199D420AD11B6804
:104920002344D0188842136012D1086803441360EE
:104930004B680CE002D90C23036030BD1C681819C9
:10494000884201BF086849680019186059605360BF
:1049500030BD00BFD40100201F2938B504460D46E4
:1049600004D9162303604FF0FF3038BD426C12B1FA
:1049700052F821304BB9204600F030F82A46014663
:104980002046BDE8384000F017B8012B0AD0591C6A
:1049900003D116230360012038BD002442F82540CE
:1049A00028469847002038BD024B01461868FFF79B
:1049B000D3BF00BF6C00002038B5074C002305466C
:1049C00008461146236000F01DF8431C02D12368FD
:1049D00003B12B6038BD00BFDC01002000F00AB835
:1049E00010F8012B11F8013B012A28BF9A42F7D099
:1049F000D01A7047024B58221A604FF0FF307047B0
:104A0000DC010020024B58221A604FF0FF30704743
:104A1000DC010020FEE700BFF8B500BFF8BC08BC11
:104A20009E467047F8B500BFF8BC08BC9E4670476C
:104A300000A0004003070306010000000000000082
:104A4000606701000000000049276D2068657265FD
:104A5000210A0000424D503238302054656D703AC2
:104A60002025640A424D5032383020707265733A06
:104A70002025640A005369373032302054656D7048
:104A80003A2025640A5369373032302052483A20A0
:104A900025640A0048656C6C6F00424D5032383016
:104AA00020466F756E64210A00424D503238302026
:104AB0004E6F7420466F756E64210A00536937305B
:104AC000323020466F756E64210A005369373032E8
:104AD00030204E6F7420466F756E64210A006D732E
:104AE000576169743A202569004920686561722020
:104AF000796F75000809110801000000000000002E
:104B0000020000008100000004000000910000008D
:104B10000800000001000000100000000300000079
:104B200020000000DFEF0000400000009FEF0000C9
:104B300080000000190700000001000019060000B5
:104B4000000200001F040000000400001F0200001B
:104B5000000800000100000000100000010000003B
:104B600000200000010000000040000001000000E3
:104B700000800000010000000500000000000000AF
:104B800040420F000501010000000000000000008D
:104B900000000000B04B0000751600007716000002
:104BA0003131486172647761726553504900000089
:104BB000984D0000A04B000044697361626C65640D
:104BC00000000000B84B0000644D00006B4D000079
:104BD00050415F4D494E0011121314151650415F9C
:104BE000484947480050415F4D41580050415F4C93
:104BF0004F5700314D42505300000000D04B000091
:104C0000EC4B0000DD4B0000E54B0000324D425004
:104C100053003235304B425053000000F34B00003C
:104C20000C4C0000124C00000A0B0C0D0E0F5354DC
:104C3000415455530909203D2030782530327820E1
:104C400052585F44523D25782054585F44533D25C7
:104C500078204D41585F52543D25782052585F507E
:104C60005F4E4F3D25782054585F46554C4C3D25AE
:104C7000780D0A004F4253455256455F54583D2522
:104C80003032783A20504F4C535F434E543D257894
:104C9000204152435F434E543D25780D0A00257351
:104CA00009203D002030782530327800203078000F
:104CB00052585F414444525F50302D310052585F8A
:104CC000414444525F50322D350054585F414444B2
:104CD00052090052585F50575F50302D3600454EF4
:104CE0005F41410900454E5F5258414444520052D1
:104CF000465F4348090052465F53455455500043B0
:104D00004F4E464947090044594E50442F464541AD
:104D10005455524500446174612052617465092004
:104D20003D2025730D0A004D6F64656C0909203D17
:104D30002025730D0A00435243204C656E6774684A
:104D400009203D2025730D0A00504120506F7765E2
:104D50007209203D2025730D0A006E524632344CF4
:104D600030312B003820626974730031362062695B
:104D70007473006E524632344C303100734D000073
:104D80005A4D00000001020304050100000000006C
:104D900000000000BC4D0000214600003546000028
:104DA000C7470000CB4700005F460000DF4500001A
:104DB000474600008946000013460000F84D0000F9
:104DC000C84D0000504E00004E31305F5F63787870
:104DD000616269763131375F5F636C6173735F74F1
:104DE0007970655F696E666F450000000000000025
:104DF000000000001C4E0000C1460000D546000027
:104E0000C7470000CB4700005F460000DF450000B9
:104E10009B4700001F470000E7460000F84D0000D8
:104E2000284E0000BC4D00004E31305F5F63787843
:104E3000616269763132305F5F73695F636C6173A1
:104E4000735F747970655F696E666F45000000007E
:104E5000984D0000584E0000537439747970655FA6
:104E6000696E666F004300000C0000201000000017
:104E700000000000017A5200027C0E011B0C0D00A4
:104E8000100000001800000058FBFFFF1400000095
:084E900000000000000000001A
:104E9800B1970181B0B0AF080000000008B10181EE
:104EA800B0B000840000000008B10181B0B00084F7
:104EB8000000000008B10181B0B0008400000000CB
:104EC80008B10181B0B000840000000008B1018180
:104ED800B0B000840000000008B10181B0B00084C7
:044EE80000000000C6
:104EEC004CB2FF7F01000000B8B2FF7F0084088045
:104EFC0020B3FF7FB0B0A88080B3FF7FB0AB24801D
:104F0C0028B6FF7F0100000070C7FF7FB0AA0580A4
:104F1C0004C8FF7F0100000038C8FF7FAB08B180D8
:104F2C006CC8FF7FB0B0AA8094C8FF7FAB08B1807B
:104F3C0000C9FF7FB0B0AC80C0C9FF7FA908B180A9
:104F4C00DCC9FF7F01000000E8C9FF7F00840480FA
:104F5C000CCAFF7FAB08B18048CAFF7F30FFFF7FD0
:104F6C00BCCAFF7F01000000E0CAFF7FB0B0A88080
:104F7C000CCCFF7FB0A9028050CCFF7F0100000059
:104F8C004ECCFF7FA908B1806ECCFF7F01000000E2
:104F9C006CCCFF7FB0B0A8807ACCFF7FB0A9028028
:104FAC0010CDFF7FA908B18060CDFF7FB0B0A88085
:104FBC00CCCDFF7F01000000D0CDFF7FA908B180D0
:104FCC00F6CDFF7FD4FEFF7FFCCDFF7FB0B0AA8073
:104FDC003ACEFF7FD0FEFF7F50CEFF7FA908B18075
:104FEC0098CEFF7FB0B0A880B0CFFF7F010000004B
:104FFC004CD1FF7FB0B0A880C8D1FF7F010000006A
:10500C00C4D1FF7FACFEFF7F20D2FF7FB0FEFF7FBD
:10501C0040D2FF7F0100000090D2FF7FA908B18031
:10502C00B8D2FF7FB0B0AC80FCD2FF7FA908B180B2
:10503C001CD3FF7F010000002CD4FF7FB0AA01809D
:10504C00C0D4FF7FB0A9068094D5FF7FB0AA0180A1
:10505C0038D6FF7FB0A8018070D6FF7FB0AA018040
:10506C0064D7FF7F0100000078E1FF7FB0A90280C8
:10507C0014E2FF7FB0B0A88064E2FF7F0100000063
:10508C0070E2FF7FB0B0AA80A8E2FF7FAE71B28061
:10509C0078E3FF7F0100000074E3FF7FAB3F3880B3
:1050AC00CCE3FF7F01000000D8E3FF7FB0B0AA8003
:1050BC0014E4FF7F01000000D0E4FF7FAB0EB28050
:1050CC0038E5FF7FB0AF0A8004E8FF7F01000000E5
:1050DC0008E8FF7FAB3F0480A4EAFF7F01000000DB
:1050EC0080ECFF7F0084048094ECFF7F01000000C3
:1050FC0090ECFF7FB0AD048054EFFF7FB0A803802D
:10510C0074EFFF7FC4FDFF7F78EFFF7FC8FDFF7F4B
:08511C0084EFFF7F0100000099
:105124000000000000800000006CDC0200000000B1
:10513400000000000000000000000000000000006B
:10514400000000000000000000000000654E0000A8
:10515400000000000000000000000000000000004B
:10516400000000000000000000000000000000003B
:10517400000000000000000000000000000000002B
:105184000000000000000000000000000C000020EF
:105194000101000059230000DD00000000000000B0
:0400000300002F6565
:00000001FF
