S0140000524632345F746573745F53544B2E73333772
S1130000000002205D3700008937000089370000B6
S113001089370000893700008937000089370000DC
S113002089370000893700008937000089370000CC
S113003089370000893700008937000061280000F3
S1130040CD0F0000893700001D270000893700000C
S1130050893700008937000089370000893700009C
S1130060893700008937000089370000893700008C
S1130070893700008937000089370000893700007C
S1130080893700008937000089370000893700006C
S1130090893700008937000089370000893700005C
S11300A0893700008937000089370000893700004C
S11300B08937000089370000B13300008937000018
S11300C0893700008937000089370000893700002C
S11300D089370000893700008937000010B5054CC6
S11300E0237833B9044B13B10448AFF300800123E0
S11300F0237010BD80000020000000004C59000057
S1130100084B10B51BB108480849AFF300800848F4
S1130110036803B910BD074B002BFBD0BDE81040AA
S1130120184700BF000000004C5900008400002064
S11301307C00002000000000154B002B08BF134B6F
S11301409D46A3F5803A00218B460F461348144A76
S1130150121A05F054F90F4B002B00D098470E4BA0
S1130160002B00D098470020002104000D000D480A
S1130170002802D00C48AFF3008005F007F92000F6
S1130180290003F061FC05F0EDF800BF0000080051
S11301900000022000000000000000008000002099
S11301A0E4010020000000000000000008B500F099
S11301B00F03013B062B65D8DFE803F025394764BC
S11301C064550400474BDB6A03F46033B3F5803FA6
S11301D023D0B3F5003F6DD0B3F5004F4AD0424B66
S11301E0984262D0414B984209D13E4B9B6AC3F37B
S11301F08103022B17D0032B62D0012B48D1BDE819
S1130200084003F0A5BB374BDB6A03F47053B3F526
S1130210805F4FD0B3F5005F2CD1334B984244D06C
S1130220324B9842E1D0BDE8084003F099BB2D4A17
S1130230936A03F00303022BEFD0032B1AD0012B94
S113024038D0936ADA0315D4C9E7264A936A03F0CF
S11302500C03082BE1D00C2B0CD0042B2AD0936A6E
S1130260DB0207D4BBE71F4B1B6813F0805301D09C
S1130270002BB4D01C4B984217D01C4B9842B4D0DE
S1130280002008BD184B98420FD0184B9842ACD0B0
S1130290154B98421DD0154B9842F1D1114B1420A7
S11302A09B6A33FA00F018D108BD0E4B9B6A03F029
S11302B003039EE70C4B9842F7D00C4B984294D022
S11302C003F064FA0A4B0B4A1B6812680133D840E6
S11302D008BD044B10209B6AE3E7BDE8084003F027
S11302E03BBB00BF00800C4002001A0003001C004E
S11302F078009043A0009043C0F30313013B70B512
S11303000C46062B05D8DFE803F00F0404505BA16C
S1130310050070BDA84B984200F0F58003F5043346
S1130320984200F0D98070BD03F09EFA41F6713214
S1130330A24BDD6BDA635B6803F00703042B06D87A
S1130340012202FA03F313F0130F40F028819C4BAF
S1130350984240F2B980052298494B6823F007037C
S113036013434B600DB10023CB63964A013C1368E1
S113037023F4E03343EA8434146003F007FA41F6CB
S113038071328E4BDC6BDA635B6803F00703042B7A
S11303907AD8012202FA03F313F0130F74D0884BB6
S11303A0984240F2EF80042272E0B1FA81F4854A67
S11303B0C4F11F04936823F00F031C43946070BDC1
S11303C003F052FA41F671327C4BDD6BDA635B6801
S11303D003F00703042B06D8012202FA03F313F0F7
S11303E0130F40F0D780764B984265D905227349A4
S11303F04B6823F0070313434B600DB10023CB6319
S113040003F036FA704BB0FBF4F0DB6CC3F3074334
S11304104A2B00F08E80792B00F08B80684A482BA1
S11304200CBF13460023B4FA84F498426749684B1E
S113043094BF00200120634A086018605368C4F127
S11304401F0423F00F031C43546096E7614B98424A
S113045000F0EF8040F282805F4B984200F0D2803F
S11304605E4B984240F0CD80564A536DDB0740F115
S1130470BF80B4FA84F4534AC4F11F04936E23F08A
S113048003032343936670BD4D4B98420CD9052258
S11304904A494B6823F0070313434B60002C3FF495
S11304A038AF0023CB6370BD4D4B4E4A0344934297
S11304B08CBF02220322EBE7494B4A4A034493428E
S11304C08CBF0222032292E7454B464A03449342DF
S11304D08CBF022203223FE73A4A536DD9070BD55A
S11304E0B4FA84F4374AC4F11F04136F23F03003C1
S11304F043EA0413136770BD136D5B06F0D5136DE7
S11305005B06F9D4ECE72F4A536DDD070AD5B4FA3C
S113051084F42C4AC4F11F04136F23F00303234310
S1130520136770BD136D5806F1D5136D5806F9D4D1
S1130530EDE72D4D2D4A2B69A969ED6903F03F06BE
S1130540C5F3031343EA062301F0F0011C4D0B43EA
S1130550B3F5017F2CBF13462B4664E7A3F5822332
S113056098424DD1174A536DD9071DD5B4FA84F476
S1130570144AC4F11F04936E23F0F00343EA0413F6
S1130580936670BD164B174A034493428CBF0022F6
S113059001227DE70A4B98426AD9042227E7084BD7
S11305A098425DD90422D7E6136D5B07DED5136D3F
S11305B05B07F9D4DAE700BF7007160000000C40AF
S11305C00048E80100800C40B081E00F78009043BF
S11305D0A0009043602614006000260060062A00F4
S11305E0FFDB0BFFFF23F400D0FF0FE000366E01AA
S11305F0136D5E077FF53DAF136D5E07F8D438E7E2
S113060070BD70BD1E4A536DD8070BD5B4FA84F47F
S11306101B4AC4F11B04936E23F4405343EA04338E
S1130620936670BD136D5907F0D5136D5907F9D44E
S1130630ECE7134A536DDE070BD5B4FA84F4104A81
S1130640C4F11F04936E23F4706343EA0423936696
S113065070BD136D5D07F0D5136D5D07F9D4ECE73C
S1130660084B094A034493428CBF0022012273E6DB
S1130670044B054A034493428CBF00220122B6E690
S113068000800C40FFDB0BFFFF23F40000F00F00A1
S11306900138062852D8DFE800F0142435515146B9
S11306A004002B4BDB6A03F46033B3F5803F49D07D
S11306B0B3F5003F44D0B3F5004F0CBF0820012030
S11306C07047234BDB6A03F47053B3F5805F37D074
S11306D0B3F5005F36D0B3F5006F0CBF04200520DE
S11306E070471B4B986A00F00300022829D00328A6
S11306F02AD0012824D09B6A13F4803F0CBF012028
S113070009207047124A936A03F00C03082B19D08E
S11307100C2B19D0042B13D0936A13F4801F0CBF35
S11307200120092070470A4B1B6813F080530DD039
S1130730B3F1805F0CBF0820012070470020704790
S11307400320704702207047062070470720704737
S113075000800C4000F47810B0F5B01F08B500F02C
S113076093800ED8B0F5402F7ED021D8B0F5003F4D
S113077076D0B0F5802F00F0B08000287BD0002028
S113078008BDB0F5081F00F09A8039D8B0F5D01F25
S113079061D0B0F5E01F72D0B0F5C01FEFD164484E
S11307A0FFF704FD634B1B6FC3F30113D84008BD6F
S11307B0B0F5801F37D0B0F5A01F6ED0B0F5602F14
S11307C0DDD15C4B5B6903F4E063B3F5007F00F0BB
S11307D09E8040F28A80B3F5C06F00F0A280B3F52A
S11307E0E06F00F0A080B3F5407FC8D1524A534B6C
S11307F0D06C534AB0F1985F34BF1846104608BD18
S1130800B0F5201F18D0B0F5281F4FD0B0F5181F31
S1130810B5D14C48FFF7CAFC464B9B6EC3F301337A
S11308200433D84008BD4748FFF7C0FC414B9B6EDA
S1130830C3F30313D84008BD4248FFF7B7FC3D4B50
S11308409A6EDB6FC2F3013203F00703D040013329
S1130850B0FBF3F008BD3B48BDE80840FFF7A6BC79
S1130860BDE8084002F092BF324A136813F0805387
S113087046D0002B83D0BDE8084002F0F9BF2C48D5
S1130880BDE80840FFF792BC2948FFF78FFC294BCD
S11308901B6F03F00303D84008BD2A48FFF786FC0A
S11308A0244B9B6EC3F30323D84008BD2548FFF7B0
S11308B07DFC204B9B6E03F00303D84008BD224807
S11308C0FFF7E4FE032817D00828D4D002287FF4C9
S11308D056AFBDE8084003F043B802F0C9FF154B1A
S11308E09B6803F00F03D84008BDF3B1B3F5807FD4
S11308F07FF445AF154808BDBDE8084003F028B8AB
S1130900536903F4E063B3F5007F7FF462AF0A4AEE
S11309100F4BD06C0F4AB0F1985F34BF18461046A5
S113092008BD0D4808BD0D4808BD0D4808BD00BFF1
S113093003001C0000800C40B081E00F40420F0017
S1130940804F120002001A0007232200C0D8A7001B
S1130950C0CF6A0040B56400003FAB01406F400166
S1130960809FD500F0B5C0F30323013B83B0044658
S1130970092B0CD8DFE803F01C1E200B0B0D190B00
S11309800B05254DC4F304342C44A400216003B0AA
S1130990F0BD224D0120224AC4F30434536DDB0719
S11309A0F2D4136D1842FCD1EEE71E4D1020F2E78D
S11309B01D4DE7E71D4DE5E7019102F0E7FE1C4BF5
S11309C00199DA6CC2F307424A2A0FD0792A0DD072
S11309D0482A184B18BF00239842174A174B94BF54
S11309E0002001201060164D1860CBE7154E164A02
S11309F03369B569F66903F03F07C6F3031343EAA5
S1130A00072305F0F0050B4E2B43B3F5017F2CBFF4
S1130A1013463346E0E700BFC003E410C002E4100D
S1130A2000800C400003E4104000E4102002E410B5
S1130A30B081E00F0048E80178009043A0009043A3
S1130A400002E410D0FF0FE000366E0138B500F06C
S1130A500F04631E062B6ED8DFE803F0987F7F6DCA
S1130A606D7A7200AD4A03244021AD4B19621368BC
S1130A70002BFCD000F0D6FB02F0F6FE41F67132FA
S1130A80A84BDD6BDA635B6803F00703042B06D81D
S1130A90012202FA03F313F0130F40F06081A24B1A
S1130AA0984240F2B88005229E494B6823F0070320
S1130AB013434B600DB10023CB63994B9B485C629D
S1130AC0FFF748FE9A4BDB6CC3F307434A2B00F055
S1130AD0AA80792B00F0A780934A482B0CBF1346B9
S1130AE000239842934A944B94BF00200120106045
S1130AF0186000F097FB02F049FE41F67132894B11
S1130B00DC6BDA635B6803F00703042B06D801226D
S1130B1002FA03F313F0130F40F01C81824B984246
S1130B2071D905227F494B6823F0070313434B60B7
S1130B300CB10023CB637F4A7F4B12681B6838BD1E
S1130B40032937D0082900F08380022943D038BD17
S1130B50072929D0082950D038BD01390829F6D8E9
S1130B6001A353F821F000BF690D0000850D0000BA
S1130B70E10D00004F0B00004F0B0000A10D000021
S1130B804F0B00004F0B0000FB0D0000023903293E
S1130B90DDD801A353F821F0C70C0000650A00005A
S1130BA0610C0000D10C00005D4A136823F08053EF
S1130BB01360C0E75A4B4021584A19621368002B4E
S1130BC0FCD000F02FFB564B60211A465962D36AC1
S1130BD09903FCD5AFE7524B4FF48071574A196221
S1130BE01368002BFCD000F01DFB4D4B40211A462E
S1130BF05962D36AD803FCD59DE7494A136843F088
S1130C008053136097E74E4B4E4A034493428CBF84
S1130C100222032286E74A4B4A4A034493428CBF8A
S1130C200222032240E7484C484A2369A169E46947
S1130C3003F03F05C4F3031343EA052301F0F00175
S1130C40394C0B43B3F5017F2CBF1346234648E7C9
S1130C50334B20211A465962D36A1B04FCD56AE738
S1130C60334BDB6CC3F307434A2B00F0FB80792B37
S1130C7000F0F880482B00F0F280002318462C4A3C
S1130C80D26CC2F307424A2A00F0D780792A00F0D6
S1130C90D480482A18BF01232649274A0B601360D1
S1130CA002F04EFE1E4A204B0224984213684FF075
S1130CB0040196BF23F0600343F0600343F0200374
S1130CC01360234AD1E61D4A04244FF48071CCE614
S1130CD0174BDB6CC3F307434A2B00F0EC80792BF2
S1130CE000F0E980482B00F0E38000231846104A06
S1130CF0D26CC2F307424A2A00F0C880792A00F075
S1130D00C580482A18BF01230A490B4A01240B60F5
S1130D101360214602F2E442A7E600BF9C0590431B
S1130D2000800C4000000C400048E8010043020031
S1130D30B081E00F78009043A0009043A405904355
S1130D40FFDB0BFFFF23F400D0FF0FE000366E0142
S1130D508C0590436C4B984267D90422E2E66A4BB7
S1130D6098425AD904229FE600252B462946022C94
S1130D7049D066498A6A22F4801323F00C032B437A
S1130D808B62D8E6614B4FF48071614A1962136833
S1130D90002BFCD000F046FA082500230221E6E7E8
S1130DA002F0F4FC5B4BDB6CC3F307434A2B00F00B
S1130DB09680792B00F09380534A482B0CBF13463E
S1130DC000239842544D554B554A94BF00200120AE
S1130DD00121286018600C25116000230321C6E757
S1130DE04A4B40214F4A19621368002BFCD000F093
S1130DF019FA042500230121B9E74FF480154FF4B3
S1130E0080330021B3E741481943826A22F48033D6
S1130E1023F003030B4383628DE6434B434A0344AD
S1130E2093428CBF002201223EE63F4B3F4A0344DB
S1130E3093428CBF0022012274E63D490C698A6901
S1130E40C96904F03F04C1F3031141EA042102F02B
S1130E50F0020A43B2F5017F28BF03461CE70123D1
S1130E6018460CE7324A012011699369D26901F0EE
S1130E703F01C2F3031242EA012203F0F0031343D9
S1130E80B3F5017F2CBF00230123F8E628490C6940
S1130E908A69C96904F03F04C1F3031141EA0421DA
S1130EA002F0F0020A43B2F5017F28BF03462BE7A4
S1130EB0012318461BE71E4A012011699369D26970
S1130EC001F03F01C2F3031242EA012203F0F003EE
S1130ED01343B3F5017F2CBF0023012307E7144B11
S1130EE0144A1D699969DB6905F03F05C3F30313CF
S1130EF043EA052301F0F001034D0B43B3F5017FF1
S1130F002CBF13462B465CE70048E80100800C40E8
S1130F10A4059043B081E00F78009043A000904373
S1130F20100890439C059043FFDB0BFFFF23F40064
S1130F30D0FF0FE000366E0110B404282ED8DFE88D
S1130F4000F023291B031F0016480223012469B162
S1130F50154B1C621AB95DF8044B00F063B90368C1
S1130F60002BF8D10368002BF9D0F4E70E4A5DF8A2
S1130F70044B136200F056B90C4808230424E6E736
S1130F800B4820231024E2E70A484FF400734FF47F
S1130F908074DCE7084880234024D8E75DF8044BDC
S1130FA0704700BF8405904300800C408C0590433B
S1130FB094059043A40590439C059043EFF310805F
S1130FC072B6704700B962B6704700BF41F20C02B6
S1130FD02DE9F0471B4B1C4E1B68B158B26B0B40FC
S1130FE01A4F03EA020423EA02084FF00209FCB193
S1130FF000254FF0010AE3070AFA05F214D5B36895
S11310003A6003EB0513DB6873B1197AD3F800C0B7
S113101081F001021A72BCF1000F05D0003118BF33
S113102001215A682846E047640805F10105E2D128
S1131030B9F1010F03D044464FF00109D7E7BDE8E9
S1131040F08700BF00300C4000200C4008300C40FA
S113105010B445F60E0440F255111C4B1C4AD3F84B
S11310608400C3F88440126800F0010002F4705454
S11310701140B4F5805F196202F0010111D0B4F59A
S1131080005F1CD0B4F5006F12D011B90F4B0222CF
S11310901A6218B10D4B0022C3F884205DF8044B8A
S11310A07047DA6A094C1206FBD503236362ECE746
S11310B0DA6A064C1207FBD502236362E5E7DA6AB3
S11310C0024C9205FBD504236362DEE700800C40EA
S11310D09C0000201F4B70B4DB6A1F4C1F49236027
S11310E00B691F4A43F004030B6111699369D269C8
S11310F001F03F01C2F3031242EA012203F0F003BC
S11311001343B3F5827F0BD3B3F5017F08D00022DC
S113111030BFA2B9C0B923685B0518D570BC70474D
S1131120104B114E196801220E40C3F880605D68AF
S113113025F04605C3F8845030BF002AEAD0094B95
S11311401E605D600028E6D070BCFFF781BF70BCF4
S113115002F01CBB00800C409C00002000ED00E06D
S1131160D0FF0FE000E100E09CF1FD00F0B445F693
S11311700E07264B264CDA6A4FF420712260D3F80E
S11311808420C3F88470D207196248BF0022214921
S113119048BFC3F884200B691F4A43F004030B6162
S11311A011699369D26901F03F01C2F3031242EA63
S11311B0012203F0F0031343B3F5827F0BD3B3F59D
S11311C0017F08D0002230BFA2B9C0B923685B05F3
S11311D018D5F0BC7047114B114E196801220E400E
S11311E0C3F880605D6825F04605C3F8845030BFBD
S11311F0002AEAD0094B1E605D600028E6D0F0BCEE
S1131200FFF726BFF0BC02F0C1BA00BF00800C405B
S11312109C00002000ED00E0D0FF0FE000E100E0C2
S11312209CF1FD00024A034BD26A1A60704700BF6A
S113123000800C409C000020F0B5C40052B1002B8B
S113124038D02518AD0005F18045012605F5C045C7
S11312508E402E612518AD00072905F1804517D869
S113126005F5C0456F684FEA810E0F2606FA0EF6A3
S113127027EA060702FA0EF63E436E603AB92044A6
S113128003BB154B8000012203448A405A60F0BD21
S113129001F1804605F5C045083EAF68B6004FF041
S11312A00F0E0EFA06FE27EA0E0702FA06F63E4372
S11312B0AE60E3E72718084DBF0001263D448E4089
S11312C06E60C7E7800000F18040012300F5C04054
S11312D08B400361F0BD00BF10600040F0B50546CF
S11312E000F104744A78E4001A48631C00269B0049
S11312F082F001026E6328631A608E6883B04868C6
S11313000F7B26B90B78A400236003B0F0BD2B68D3
S113131023F440732B602B6823F4407343EA0723C0
S11313202B6088B10C4BA0EB8600DB5D2A6806FBC2
S113133003F6B0FBF6F02B6801389B0702D50028B2
S113134008BF01202861DDE704480191FFF702FA94
S11313500199E7E7CFFF01007055000040810400C8
S1131360844A2DE9F0419042034600F0C38002F51F
S11313708062904240F0BA807F4A946840250526F6
S113138000274FF0030E996A11F4C06F40F0C98032
S11313901078082800F2B080DFE800F015264955DF
S11313A03D8E6A710500C9051BD54FF48070186322
S11313B009215078117040B200210128596300F0CE
S11313C0A080BDE8F08160882188C50640F19D8039
S11313D0090A01F0060141F0F00101201070596280
S11313E058600120BDE8F081080600F1A880490694
S11313F0F7D561881D63C80600F1B78089073CD51D
S11314001179072004EBC104218910700129E8D166
S113141008225A60E5E7080600F191804806E0D505
S113142061881D63490728D507231370D9E7080687
S113143000F185804806D4D561881D6389071CD5D1
S113144082F800E09FE760882188C50643BF090A47
S113145001F0060141F0F00101F0FE01440748BF2C
S113146041F0010104240120147058605962B8E766
S1131470080664D44906B4D51D63167083E788064C
S1131480AFD51179508804EBC1042189DD6981420B
S113149042D96468461C56802554508881423BD901
S11314A0042401295C6002D00139884250D01178AB
S11314B0092996D150787EE71179508804EBC10C44
S11314C0BCF80880804547D80131C9B211716088E1
S11314D0578010F0040FB3D1C00702D401297FF65E
S11314E052AF08200221107059607AE76FF00300B0
S11314F0BDE8F081214A40E7FB20092150701170BA
S113150059E751700846BDE8F08101F0FE018407F7
S113151048BF41F0010160E70129E2D10821596087
S1131520DFE78F0504D5FD2050700921117042E7D3
S11315304E0549BFFE21507808465170F5E78025D5
S1131540FF24082002211D6354701070596048E77D
S1131550082159601178ABE7DCF80410441C54806E
S1131560085C0621586211703BE721780220107054
S1131570596236E700A00040AC000020A000002023
S1131580994A2DE9F0419042034600F0D58002F5D6
S11315908062904241D1954A9868C50744BF202093
S11315A058604888840702D50C89002C35D0400740
S11315B030D400200125C024107191601070508037
S11315C055705C609A6A8849920648BFDA69884A0D
S11315D08B421A635A6B42F4FC625A6300F0AE8089
S11315E0844A934219D1814A9468402505260027EC
S11315F04FF0030E996A11F4C06F40F0C880107860
S1131600082800F29D80DFE800F028374E597082E8
S11316107B150C00088A0028CBD16FF00300BDE8CD
S1131620F081C9055ED54FF48070092118635078A4
S1131630117089E0880655D51179508804EBC104EE
S11316402189DD69814200F28E80012900F0B68093
S1131650082002211070596044E060882188C50682
S11316607BD401F0FE01840748BF41F00101012051
S113167010705962586035E0080600F196804906FA
S113168030D561881D63C80600F1A88089073CD560
S11316901179072004EBC10421891070012921D19B
S11316A008225A601EE008067FD448061AD56188CD
S11316B01D63890729D582F800E09BE760882188AB
S11316C0C50643BF090A01F0060141F0F00101F02B
S11316D0FE01440748BF41F00101042401201470B5
S11316E0586059620120BDE8F08108065DD44806BF
S11316F0F8D561881D63490707D507231370F1E7FF
S1131700080652D44906EDD51D63167072E71179A7
S1131710508804EBC10CBCF80880804555D80131D1
S1131720C9B211716088578010F0040FC3D1C0078B
S11317308ED401298CD85DE72F4A2DE72E4A53E732
S1131740FB2009215070117040B200210128596317
S1131750C9D151700846BDE8F081090A01F00601BB
S113176041F0F00183E76468461C56802554508894
S113177081427FF66AAF042401295C6002D00139FA
S113178088421ED011780929ACD15078DCE78F0546
S113179004D5FD20507009211170D5E74E0549BFCD
S11317A0FE21507808465170F5E78025FF24082073
S11317B002211D6354701070596093E70821596029
S11317C046E7082159601178DDE7DCF80410441C71
S11317D05480085C06215862117083E72178022046
S11317E0107059627EE700BF00A00040AC000020EA
S11317F0CFFF010000A40040A00000200B4B0122F9
S11318000B499A608B6813400BD010B44AF6E85425
S1131810084800238C6002605DF8044B03608B6011
S1131820704704490A600B60704700BF00A00C4079
S113183000600C4080048C433B4B5B6803F0010266
S11318409907104604D513F0810F08BF42F0020037
S1131850590704D513F0910F08BF40F0040019078D
S113186001D5002A5CD0D90603D5990708BF40F0FA
S11318701000990604D54EF6DF71194000294CD0AA
S1131880590604D54EF69F711940002942D0190615
S113189004D540F219711940002938D0D90503D56F
S11318A040F21961194079B3990503D540F21F41FB
S11318B0194031B3590503D540F21F211940E9B14C
S11318C0190500D5BAB1D90400D58AB1990400D557
S11318D05AB1590400D52AB11B0402D50AB940F4FF
S11318E00040704740F48040F6E740F40050F0E7D1
S11318F040F48050EAE740F40060E4E740F480609C
S1131900DEE740F40070D5E740F48070CCE740F0A7
S11319108000C3E740F04000B9E740F02000AFE7A3
S113192040F008009FE700BF00A00C4030B1012840
S113193002D1044BD868704700207047014B986867
S1131940704700BF0000084020B1012801D1024BBC
S113195019607047014BFBE70C0008400800084081
S1131960427803780AB143F0020382780AB143F063
S11319700403014A13607047000008404FF0864397
S11319800021012219601A60704700BF0B4A516997
S1131990136901F00F01C3F3811343EA81038370D8
S11319A0136903F03F0343709169D36901F0F002B6
S11319B0C3F3031313430370704700BFD0FF0FE05A
S11319C02DE9F04791F80090B9F1000F01D10223FD
S11319D043604B784C7A8A7A002B18BF4FF0400A48
S11319E0CB7A08BF4FF0000A002C18BF4FF08008D4
S11319F00C7908BF4FF00008002A18BF4FF0200CE4
S1131A004A7908BF4FF0000C002B18BF4FF0100E9E
S1131A100B7B08BF4FF0000E002C14BF4FF400578F
S1131A200027002ACA7814BF4FF080560026002BE6
S1131A308B780C7A4FEA024242EA03628B7942EADB
S1131A400402C97942EA832242EA012343EA0A03EF
S1131A5043EA080848EA0C0C4CEA0E0E4EEA070763
S1131A6014BF082500253E43354300234362056027
S1131A70B9F1000F01D001234360BDE8F08700BF36
S1131A80D3792DE9F041157A002B547A14BF4FF421
S1131A9000184FF00008002D557814BF4FF4801C37
S1131AA04FF0000C002C147896794FEA0565937A70
S1131AB045EA8465947845EA0605D67814BF4FF064
S1131AC0100E4FF0000E45EA0444002B13795579AB
S1131AD044EA063444EA832242EA052343EA08033B
S1131AE043EA0C0C14BF0427002703314CEA0E0E02
S1131AF009014EEA07074750BDE8F081F8B50446EE
S1131B0040F6AA6741F2050641F6F9702C4A002313
S1131B109442E7600D4623606660A3606361E364FA
S1131B20A064636549D0274AA365944242D0264BFA
S1131B309C423FD0AA7B2B7D002A14BF4FF48061C6
S1131B400021002B2B8A226843F001039BB242EA56
S1131B50030242EA01022260236814BF4FF00050DE
S1131B600020AA7C034323601AB1EB7C43F01003EA
S1131B70A3652A7B686842F480526260AE6810B93B
S1131B801248FEF7E7FD721E02EB4000B0FBF6F3CD
S1131B9061699B010E48403B21F4FF12184022F476
S1131BA0FE526B7B024362610BB11023E3602B781E
S1131BB0E360F8BD0023E365BCE72365A365B9E7EB
S1131BC000C0004000C4004000C800404081040040
S1131BD000FF1F0003695A06FCD5416303699B0695
S1131BE0FCD5C069C0B27047704700BF10B5044649
S1131BF003F093FA204610BD70B5064686B06C46D5
S1131C001F4B204833600121FEF7ACFE1E48012122
S1131C10FEF7A8FE0320002104220123FFF70CFB9A
S1131C2001210A4603200023FFF706FB03200221BB
S1131C3004220123FFF700FB0320052101220023D6
S1131C40FFF7FAFA04210A4603200123FFF7F4FA06
S1131C500E4D0320014604220123FFF7EDFA0FCDB8
S1131C600FC495E803000A4D84E80300284669463A
S1131C70FFF744FF40F20B1330466B6506B070BDAE
S1131C809855000000D204000012040074550000AE
S1131C9000C400400148FFF79DBF00BF00C40040DE
S1131CA04379418803EBC3039B0003F18043012282
S1131CB003F5C0438A401A61704700BF2DE9F04123
S1131CC0064640797588124C00EBC0001F46800020
S1131CD00123044403FA05F0606001F01F010D487C
S1131CE01446FFF7D7FF7D1E8046EDB24FB1254461
S1131CF0013C0848FF21FFF7CDFF04F8010FAC4277
S1131D00F7D13046FFF7CCFF4046BDE8F08100BF75
S1131D1010600040E4000020437970B50D4A468805
S1131D2003EBC30304460C4D9B0001201A4400FA44
S1131D3006F3536001F01F012846FFF7ABFFFF21B4
S1131D402846FFF7A7FF05462046FFF7A9FF2846C8
S1131D5070BD00BF10600040E40000202DE9F04198
S1131D60064640797588124C00EBC0001F4680007F
S1131D700123044401F01F0103FA05F0606041F0FF
S1131D8020010C481446FFF785FF7D1E8046EDB206
S1131D9047B12544013C14F8011F0648FFF77AFFB8
S1131DA0AC42F8D13046FFF77BFF4046BDE8F081F6
S1131DB010600040E4000020F8B5044643796788C9
S1131DC00D4803EBC3030D4E9B000125184401F09D
S1131DD01F0105FA07F3436041F02001304617461E
S1131DE0FFF758FF054639463046FFF753FF2046B4
S1131DF0FFF756FF2846F8BD10600040E4000020BD
S1131E002DE9F04790F8079007464A4528BF4A460F
S1131E10007A0C469246002837D1C2EB09095FFAD2
S1131E2089F909F1FF36F6B278797988194A00EB15
S1131E30C00080000125024405FA01F050601946F3
S1131E401548FFF727FF0AF1FF358046EDB2BAF1D6
S1131E50000F08D02544013C14F8011F0E48FFF779
S1131E6019FFAC42F8D1B9F1000F08D001360024B3
S1131E70013409480021FFF70DFFB442F8D1384678
S1131E80FFF70EFF4046BDE8F087FF264FF000093C
S1131E90CAE700BF10600040E400002038B5437971
S1131EA04588094A03EBC30304469B0001201A44F6
S1131EB000FA05F353600548FFF7ECFE054620469B
S1131EC0FFF7EEFE284638BD10600040E400002015
S1131ED010B5C1F3420084B001F00102C1F3001453
S1131EE0019002920094C1F38012C1F3401302489E
S1131EF000F0C8FC04B010BD34560000F8B51C4610
S1131F000646651E0C481746EDB200F0BBFC6CB1EA
S1131F10013500243919C9B23046FFF7FDFE0134FA
S1131F200146064800F0AEFCAC42F3D10448BDE8DB
S1131F30F84000F0A7BC00BFA8560000B05600004F
S1131F405C5700002DE9F84F1C4600AF064604F12B
S1131F50FF39194892465FFA89F900F093FC24B3DB
S1131F6009F101090025B47BE846E31D23F00703CA
S1131F70ADEB030DEB460AEB050123466A46C9B2F5
S1131F803046FFF79BFE013C0C4800F07BFC1BEB4A
S1131F90040406D214F80119094800F073FCA3459F
S1131FA0F8D901354D45C546DDD10648BD46BDE8E5
S1131FB0F84F00F067BC00BFA8560000B8560000F8
S1131FC0BC5600005C570000F0B5BDF814E02027B3
S1131FD005260025028001714371A0F802E0C77153
S1131FE086734572F0BD00BF7D290A4628BF7D2255
S1131FF00521FFF7E1BE00BF10B5044603791A4A74
S1132000008803EBC30301219B001A4401FA00F387
S11320105360A06900F01CFC20461D21FFF77CFEE4
S1132020830706D5A06900F013FC2046E121FFF7E1
S113203035FF2046E221FFF731FF20460021FFF75C
S11320406BFE002100F0FE022046FFF7B5FE20469D
S11320500221FFF761FE40F00102D2B22046BDE842
S113206010400221FFF7A8BE1060004038B5037984
S113207005880A4A03EBC3039B0001211A4401FAB1
S113208005F3536000210446FFF746FE002100F0EB
S1132090FD022046BDE83840FFF78EBE10600040C8
S11320A010B500210446FFF737FE00F0020303F0E9
S11320B0FF0103B110BD40F00202D2B22046FFF787
S11320C07BFEBDE81040052000F0D2BB10B5002116
S11320D00446FFF721FE00F0020303F0FF012BB9D1
S11320E040F00202D2B22046FFF766FE00F0B2FBD7
S11320F0206110BD10B5044600F0ACFB2369C01A82
S1132100052894BF0020012010BD00BF38B5002B66
S11321109DF8104014BFB023A0230546FFF770FEBE
S11321205CB12B79298803EBC3039B0003F1804343
S1132130012203F5C0438A401A6138BD30B5012439
S113214083B000940446FFF7E1FF2046FF21FFF728
S1132150A5FE10F0300FF8D0237921880C4A03EB48
S1132160C3039B0001251A4405FA01F3536020467A
S113217007217022FFF720FEC30602D4284603B0CD
S113218030BD2046E121FFF789FE002003B030BDB9
S1132190106000400023FFF7D1BF00BF30B50446F4
S11321A083B002AD65E902230A212A46837BFFF747
S11321B0D5FD2A46A37B20461021FFF7CFFD2046FC
S11321C0E2791121FFF7F8FD03B030BD70B582B09C
S11321D0CDE9002305460C4609B3062901D902B00E
S11321E070BD012929D0164B6A46595C0123FFF7BB
S11321F0B5FD144BEA79195D2846FFF7DDFD284645
S11322000221FFF789FD104B01221B5D02219A4038
S11322100243D2B22846FFF7CFFD02B070BD694633
S11322200930AA7B6E4603F0DFF8054B3246195D90
S11322302846AB7BFFF792FDDBE76E46F5E700BF70
S11322402C560000D8550000B8570000023911F090
S1132250FF0238B5054605D10321FFF7ADFD022382
S1132260AB7338BD02F0030422460321FFF7A4FD3B
S1132270A21CAA7338BD00BF38B50D46022104461E
S1132280FFF74AFD064B01225B5D02219A4020EADA
S11322900202D2B22046BDE83840FFF78DBD00BF30
S11322A0B857000010B50446FFF7FAFE0021204697
S11322B0FFF732FD40F00102D2B200212046FFF7C1
S11322C07BFD072170222046FFF776FD23792188C4
S11322D003EBC3039B0003F1804301228A4003F50F
S11322E0C0431A61617A204681B10A2104F10902CE
S11322F0A37BFFF733FDE2212046FFF7CFFD204605
S11323001D21FFF709FD830703D410BDFFF7B4FFB8
S1132310F1E72046BDE81040E121FFF7BFBD00BF53
S113232019B90A460121FFF747BD01213F22FFF7F2
S113233043BD00BF38B50C4606210546FFF7ECFC4B
S1132340032C9CBF6400013400F0F80294BF04F035
S1132350FF040724284622430621BDE83840FFF73E
S11323602BBD00BF70B50E4606210446FFF7D4FC12
S1132370022E00F0D70514D0012E12BFFA23BE237B
S113238045F00805A3612A4620460621FFF714FDFF
S113239020460621FFF7C0FC281AB0FA80F0400955
S11323A070BD4FF4E17345F02005A361EBE700BF76
S11323B008B50621FFF7B0FC00F0280020281DBF57
S11323C00838B0FA80F04009022008BD38B50C4640
S11323D000210546FFF7A0FC00F0F3022CB1012C0C
S11323E00CBF42F0080242F00C022846BDE8384017
S11323F00021FFF7E1BC00BF38B500210546FFF717
S11324008BFC044601212846FFF786FC230700D4F1
S113241020B114F0040F14BF0220012038BD00BF06
S113242010B5FF210446FFF739FD01462046FFF7AA
S11324304FFD204630490A220223FFF783FD204640
S11324402E490C220423FFF759FD20462C49102263
S11324500123FFF777FD20462A4911220623FFF7BF
S11324604DFD0122204613462749FFF747FD20462C
S1132470264902220123FFF741FD20462449052273
S11324800123FFF73BFD2046224906220123FFF7E3
S113249035FD2046204900220123FFF72FFD1C2291
S11324A020461E490223FFF729FD2046FFF780FF3F
S11324B01B4B53F820101B4800F0E4F9A2791A4B87
S11324C01A4853F8221000F0DDF92046FFF794FF74
S11324D0174B53F82010174800F0D4F92046062172
S11324E0FFF71AFCBDE81040134BC0F3410053F84A
S11324F02010124800F0C6B9C4560000D45600009B
S1132500E4560000F0560000FC560000045700009A
S11325101057000018570000245700002C570000E3
S1132520205600003C570000B057000050570000F0
S1132530C4550000605700000056000074570000A6
S113254002F00F0242EA0112D2B20421FFF734BCB6
S1132550F0B5012389B00024194602223A488DF8C7
S113256010308DF80A208DF811408DF812408DF846
S113257013408DF814408DF815408DF816408DF8F1
S113258017408DF818408DF819408DF81A408DF8D1
S11325901B408DF81C408DF804408DF805408DF8E3
S11325A006408DF807408DF808408DF809408DF8F5
S11325B00B408DF80C408DF80D408DF80E40FEF761
S11325C0D1F94FF6FF7321482146C36101AAFFF7F1
S11325D057FA1F4D1F4E8DF8124001E0B04210D93A
S11325E01A4804A9FFF7ECF91B48FEF7B3F89DF865
S11325F01220531CDBB2D0400A2B28608DF8123015
S1132600ECD91648FEF7A6F8154B2968B3FBF0F091
S1132610144E0027E1FB0067134A00233046394675
S113262001F0E0FA114A002510602846104B074CCF
S11326301D70E3680F4A042123F01003E360C2F81D
S11326408011116009B0F0BD005204000000014087
S1132650BC00002080841E00408104005000020061
S113266000B0710B20A1070040420F00B800002009
S1132670C000002000E100E02349F0B50968234CC4
S11326800025E1FB004583B020462946204A00236B
S113269001F0A8FA4FF6E85400258D4208BF8442A1
S11326A02CD24FF6E75C1B4EDFF86CE04FF0FF379F
S11326B0DEF8242092B2DEF824309BB2ADF8043068
S11326C0BDF804309B1A9BB26345F4D98019794153
S11326D08D4208BF8442EBD30F4B80B219465A6A2D
S11326E092B24B6A9BB2ADF80630BDF806309B1A25
S11326F09BB29842F5D8002003B0F0BD50EA010324
S1132700EAD1002003B0F0BDBC00002020A10700E6
S113271040420F001802FFFF00000140044B1A69F9
S1132720D20604D5034A1020012198611170704724
S113273000000140C000002010B51F4C01212046BC
S1132740FFF752FC20460321FFF7F4FD2046002149
S1132750FFF708FE20460121FFF7E2FD0F22204685
S11327600221FFF7EDFE20460421FFF76FFD012152
S11327702046FFF72BFE2046FFF73EFC0AA3D3E9D1
S113278000232046FFF70AFD09A3D3E900232046CE
S11327900121FFF71BFD2046FFF784FD2046BDE81D
S11327A01040FFF73DBE00BF909356DF00000000CD
S11327B0A4B104AC00000000C4000020704700BFB6
S11327C038B511200221FDF797FD01210A460220A8
S11327D0FEF7B2FB11200421FEF738F90D48012160
S11327E0FEF7C0F80C48FDF7B5FF0C4BA3FB002324
S11327F09B09013BB3F1807F00D3FEE7084A094CF3
S1132800E0255360002084F8235007219060116074
S113281038BD00BF00D2040050000200D34D621046
S113282010E000E000ED00E0042008B502460021BD
S11328300123FEF701FD01210A4600230420FEF7CF
S1132840FBFC40F20312014B5A6508BD00E0004056
S1132850FFF712BF014B1868704700BFE800002063
S1132860024A136801331360704700BFE800002078
S1132870034A116813685B1A8342FBD3704700BF95
S1132880E80000200FB404B0704700BF0FB404B0D8
S1132890704700BF0148FFF7E9BB00BFC400002038
S11328A00148FFF713BC00BFC400002038B505463B
S11328B00C460948FFF71EFC0028FAD00648FFF72B
S11328C09BFB224629460448FFF764FC0446024861
S11328D0FFF7E8FC204638BDC400002010B5094CC1
S11328E082B02046FFF788F920460749074A02F0DC
S11328F00FFC032100910B4604220548FFF764FBFB
S113290002B010BDE4000020E91B0000000000201C
S1132910C40000200E4B30B41C682188B4F9042094
S1132920C1EB201303FB03F3B4F9025049001B135A
S1132930C1EBE00002FB03F305FB00F09B1303EB88
S1132940E02303EB83008030A361001230BC7047A6
S1132950EC000020F0B540F635452B4B40421C6896
S1132960A369B4F90E705B10A3F57A43991001FBC7
S113297001F103FB07F7B4F910C0CE127F00B4F9DC
S113298008200CFB0676B4F90AE003FB02F24913B3
S1132990B4F90C7001FB0EF13B0403EBA6065310D3
S11329A0A0EB263203EBE10305FB02F2E0889B1463
S11329B003F5004300FB03F302F1434202F5A002D6
S11329C0002A4FEAE33019DBB8B15200B2FBF0F051
S11329D0C30803FB03F3B4F91420B4F916108508F3
S11329E05B0B02FB05F203FB01F35213B4F9121063
S11329F002EB23330B4400EB2310F0BD0028FCD082
S1132A00B2FBF0F04000E3E7EC000020F0B51B4A15
S1132A1083B0126800238DF800308DF801308DF8F2
S1132A2002308DF803308DF804308DF8053012B380
S1132A300D460646546A507FF7216A460623A0478E
S1132A409DF800409DF803209DF801E09DF80430B6
S1132A50120324039DF802709DF8051042EA031343
S1132A6044EA0E1444EA171243EA111332602B604D
S1132A7040B203B0F0BD8120FAE700BFEC000020B3
S1132A8070B50D4A82B012680023009301938AB195
S1132A900D46044601A96846FFF7B8FF06460198AB
S1132AA0FFF738FF28600098FFF754FF206070B2EA
S1132AB002B070BD8126FAE7EC00002030B5364C38
S1132AC087B0226800230093019302930393049335
S1132AD00593002A5DD0556A507F88216A461823E1
S1132AE0A8479DF801109DF80020236842EA0122BE
S1132AF01A809DF903109DF8022042EA01225A80AF
S1132B009DF905109DF8042042EA01229A809DF85F
S1132B1007109DF8062042EA0122DA809DF9091087
S1132B209DF8082042EA01221A819DF90B109DF8B4
S1132B300A2042EA01225A819DF90D109DF80C20C9
S1132B4042EA01229A819DF90F109DF80E2042EA73
S1132B500122DA819DF911109DF8102042EA012228
S1132B601A829DF913109DF8122042EA01225A821A
S1132B709DF915109DF8142042EA01229A829DF9CC
S1132B8017109DF8162042EA0122DA8240B207B0FB
S1132B9030BD8120FAE700BFEC0000202DE9F041B0
S1132BA01A4E0346374682B002AD0022306005F863
S1132BB0012D0524D3F824C0587F2A460123D021AF
S1132BC0E0479DF807300120A3F15602022ADFF8FE
S1132BD03C8012D933689B6A9847631E13F0FF0444
S1132BE001D03B68E6E7D8F800309DF80720FF20C5
S1132BF040B21A7702B0BDE8F08132681377FFF76C
S1132C005DFF40B202B0BDE8F08100BFEC000020DF
S1132C1070B5134C82B0236800228DF80720EBB105
S1132C2005465E6A587F0DF10702F4210123B0477F
S1132C3088B99DF80730216803F01F0343EA451360
S1132C408DF807300E6A487F01230DF10702F42145
S1132C50B04723689D7740B202B070BD8120FAE787
S1132C60EC00002010B50F4A82B0116800238DF8E3
S1132C700730A1B1032810D88B7FCC7F5B0103EB15
S1132C808403184402AA02F8010D0C6A487F012348
S1132C90F421A04740B202B010BDFE20FAE7812023
S1132CA0F8E700BFEC00002070B5134D82B02B682C
S1132CB000228DF80720EBB104465E6A587F0DF1BF
S1132CC00702F5210123B04788B99DF80730A00019
S1132CD0296823F01C0400F01C0020438DF8070031
S1132CE00C6A487F0DF10702F5210123A04740B289
S1132CF002B070BD8120FAE7EC00002070B52B4DC6
S1132D0082B02B6800228DF80720002B4BD00428BA
S1132D103FD804465E6A587F0DF10702F42101236F
S1132D20B047E0B9601E03281CD8DFE800F0222A6F
S1132D3002342B68012104229977DA7710202024A9
S1132D409DF807100DF1070201F00301214301432F
S1132D508DF807101C6A587FF4210123A04740B264
S1132D6002B070BD2B6801229A77DA770420202400
S1132D70E6E72B68012102229977DA7708202024DC
S1132D80DEE72B68012103229977DA770C202024CF
S1132D90D6E7FE20E3E72B68022105229977DA774C
S1132DA014204024CCE78120D9E700BFEC000020A8
S1132DB070B5044684B001214348FDF7D3FD236870
S1132DC0424A93427ED002F58062934201D004B01D
S1132DD070BD3F480121FDF7C5FD207961790A22C4
S1132DE00123FEF729FAA079E1790A220123FEF7EB
S1132DF023FA2279617902EBC2029200012302F1E3
S1132E00804202F5C04203FA01F11161617902F1D5
S1132E10100503FA01F151616079694603FA00F083
S1132E201061607903FA00F05061607903FA00F0F0
S1132E301061607903FA00F05061607903FA00F0E0
S1132E401061607903FA00F05061607903FA00F0D0
S1132E501061607903FA00F05061607903FA00F0C0
S1132E601061607903FA00F05061607903FA00F0B0
S1132E701061607903FA00F05061607903FA00F0A0
S1132E801061607903FA00F050616679206803FAF2
S1132E9006F616616279267D03FA02F26A60227AE6
S1132EA025691202E46842F0030282638DF800305F
S1132EB08DF80130029501948DF80C60FEF70EFA3E
S1132EC004B070BD034885E74081040000A00040C1
S1132ED000C2040000B2040038B50546FEF750FBFA
S1132EE0012808D1054C01E0013C04D02846FEF736
S1132EF037FA0128F8D040B238BD00BFE09304008F
S1132F002DE9F04380462A4B4FF00009002103F1DC
S1132F10A0024FF0010E1879597158B153E90645D2
S1132F20A94508BFA0450AD2B4EB080465EB09051E
S1132F3043E9064528339342EDD1BDE8F083D879BF
S1132F4030B9187118680028F4D083F805E0F1E767
S1132F5053E90467A4197D4153F8087CB4EB0804D1
S1132F6065EB0905002F43E906450FDD53F8040C12
S1132F703844F32843F8040CE4D9013445F100053E
S1132F80F43843E9064543F8040CDBE753F8046CD2
S1132F90F01BF32843F8040CD4D914F1FF3445F1A1
S1132FA0FF35F43843E9064543F8040CCAE700BF8B
S1132FB01001002038B50546FEF700F8124B9A7F41
S1132FC072B193F84620C2B193F86E203AB193F8E7
S1132FD09620A2B10D4CFDF7F5FF204638BD022224
S1132FE07DB102EB820103EBC10301219977002437
S1132FF02A60FDF7E7FF204638BD0122F0E70322EF
S1133000EEE7034CE7E700BFF8000020011000F0F2
S1133010041000F038B51A4B1C7874BB01252946FE
S113302018481D70FDF79EFC17480221FDF70EFDA0
S113303016480821FDF760F929461448FDF792FC6B
S11330401348FEF78DFC134B0721DA6922F00702BF
S1133050DA619961FEF792FC0F4B4FF08042C3F89E
S1133060802121461A600D48A02202F0C8F90C49BB
S11330700C4A0D4B0C7014701C60002038BD00BF4E
S1133080F10000200043020002001A006016100044
S1133090C05700000000084000E100E0F8000020F4
S11330A0F2000020F0000020980100202DE9F04FEC
S11330B0032885B0064603D9B44805B0BDE8F08FAF
S11330C0994687008B469046FDF778FFB04D07EB95
S11330D0060C05EBCC0C9CF81E308246002B56D017
S11330E0B8F1000F57D0AB4C4FF4004364684FF471
S11330F07A600021E3FB0801CCF818904FF4FA52EF
S11331000023CDF804C0029400F06CFDDDF804C087
S1133110BBF1010FCCE9020144D010F1FF3041F1C1
S1133120FF31CCE90201BA1905EBC20213460130A2
S1133130994C41F10001E3E8060194F800E00E9C8B
S11331404FF0010C146283F807B083F804C0BEF199
S1133150000F17D1914B1B68013304D08F4B8F4A5A
S11331601B6801331360DFF8409299F8003033B3E1
S11331708A4B1B68012B43D0884B1A6812B11A681A
S1133180013A1A605046FDF71DFF002095E7FDF750
S113319019FF834891E7B9F1000FF3D030460E9937
S11331A0C847EFE74FF47A7303FB08F8F42303FBF3
S11331B010837A22CCF81030CCF81420B3E7794A83
S11331C000238B4208BF824238BF1046029C029BF8
S11331D0DFF8D8E16F4E034424F07F45022723F043
S11331E07F41CEF800500020B761FEF7ADFB694A7D
S11331F00121D36943F00203D36189F80010BBE7CE
S113320000221046DFF8A4B1BB19029C05EBC303EE
S1133210DBF800101A7722020393CDF808A00B0202
S1133220824611465B4FDFF86881FA69CB1A13F5C1
S1133230807F22F002024FEA1320FA6108BF0020C7
S1133240FFF75EFE6B7F002B40F0998095F84530C8
S1133250002B40F08D8095F86D30002B40F081807C
S113326095F89530002B6ED1BAF1000F02D1039A74
S1133270012313772B7F0AF1010A002B6AD0D8E9C6
S1133280002395F8441039B1D8E90A01994208BFDE
S113329090423CBF02460B4695F86C1039B1D8E910
S11332A01401994208BF90423CBF02460B4695F870
S11332B0941039B1D8E91E01994208BF90423CBF2D
S11332C002460B46002189F80010591C08BFB2F1D0
S11332D0FF3F1DD0002199422F493248097808BF89
S11332E0904238BF0246002939D124F07F4002239E
S11332F0A118CBF8000021F07F41BB610020FEF74C
S113330023FB012389F80030FB6943F00203FB61CE
S11333107C68DBF8006021020020A1EB0626019105
S1133320FEF704FBDBF8003099F800201B02C3EB26
S11333300020360A000A1AB1864201993FF675AF99
S1133340DDF808A018E7D8F890300320D8F89810D2
S1133350984789E74FF0FF324FF0FF3391E720465B
S1133360C5E7D8F868300220D8F87010984777E796
S1133370D8F840300120D8F8481098476BE7D8F8BF
S113338018300020D8F8201098475FE7021000F0AA
S1133390F800002000000840F200002098010020FE
S11333A0031000F09BFFFF00F00000209C010020B0
S11333B02DE9F04F83B0FDF701FE5C4B0190DA6913
S11333C019690A4022F003019407996140F1A88029
S11333D0574FD3F80480574C1D4657493B68012288
S11333E026460A70DFF858914FEA082A1B025FE06C
S11333F0D6E9002394F8441039B1D6E90A01994278
S113340008BF90423CBF02460B4694F86C1039B199
S1133410D6E91401994208BF90423CBF02460B46CC
S113342094F8941039B1D6E91E01994208BF90422C
S11334303CBF02460B46002189F80010591C08BF06
S1133440B2F1FF3F1DD0002199423B493B48097826
S113345008BF904238BF0246002945D128F07F407A
S1133460022308EB0201386021F07F41AB610020A8
S1133470FEF76AFA012389F80030EB6943F002038E
S1133480EB61D5F804803A684FEA082AAAEB0222D5
S113349000204FEA122BFEF749FA3B6899F8002006
S11334A01B02C3EB0020000A002A35D0834533D920
S11334B0EA69C3EB0A0022F00203EB61000AFFF79A
S11334C01FFD637F1BBB94F84530DBB994F86D3066
S11334D09BB994F895304BB9237F002B88D14FF0DA
S11334E0FF324FF0FF3385E74046B9E7D6F8903016
S11334F00320D6F898109847EEE7B36E0220316F98
S11335009847E6E7336C0120B16C9847DEE7B3696E
S11335100020316A9847D6E7074A002301981370C0
S113352003B0BDE8F04FFDF74DBD00BF00000840FB
S11335309C010020F8000020F20000209BFFFF0007
S1133540F00000202DE9F043884689B008ADE5215C
S113355005F81C1D02274FF0040C4FF0010E02ACBD
S113356003A9ADF81C70ADF80C8091461E46049575
S1133570ADF80EC0ADF814E006940746FFF7ACFCB6
S113358000283ED143F609509DF809109DF80830F3
S113359001F0FC0101EB032100FB01F1490BA1F552
S11335A0BB511039C9F8001038464FF0040EE0271B
S11335B00122022303A9ADF80C8004950694ADF80A
S11335C00EE08DF80470ADF81420ADF81C30FFF750
S11335D083FC00BB9DF809309DF8082003F0FC0330
S11335E003EB0223336045F2CD523368002002FB23
S11335F003F25213A2F53742023A326009B0BDE831
S1133600F08300230228C9F8003009D04FF0FF30BE
S113361009B0BDE8F083002302283360E3D0F5E766
S11336200049BFE790E8FFFFF0B54FF0040C89B004
S1133630ADF80C104FF0FC0EC92702260DEB0C055B
S1133640082303A91446ADF80EC08DF800E08DF8E8
S11336500170CDF810D0ADF814600695ADF81C30AB
S1133660FFF73AFC30B944B19DF8043001202370CF
S113367009B0F0BD002009B0F0BD0120F8E700BF9B
S113368070B50B4B0B4D0C4C00221A705A7028600D
S11336902160FEF7D1F8C30500D470BDFEF7AEF883
S11336A02368002BF9D0BDE870400420184700BF00
S11336B0A8010020A4010020A001002038B5FDF7D6
S11336C07DFC184B04461A78A2B95B78FBB9164BFB
S11336D01B680BB1032098470120FDF747FD032524
S11336E0124B1B680BB1284698472046FDF76AFC2D
S11336F0284638BD0C4B1B680BB1012098470C4A77
S1133700136923F00403136130BF0125E8E7064B76
S11337101B680BB1022098470120FDF7DBFC022552
S1133720DEE700BFA8010020A4010020A0010020C2
S113373000ED00E0831EDAB2012A00D97047054982
S11337400228CA5C02F10102CA54F7D1024B0122D9
S11337501A607047A801002004008C430648804783
S11337600649074A074B9A42BEBF51F8040B42F878
S1133770040BF8E7FCF7E0FC4D390000EC5B0000BB
S11337800000002080000020FEE700BF294AD36A21
S113379003F47053B3F5805F2AD0B3F5005F24D0EF
S11337A0B3F5006F11D0D36803F4E063B3F5007F81
S11337B03DD020D9B3F5806F37D0B3F5A06F32D0A8
S11337C0B3F5407F24D0002301E01B4B1B68194A4A
S11337D01A4910685268C0F382300130B3FBF0F02C
S11337E002F00F03D84008607047154B1B68EEE7E2
S11337F04FF40043EBE76BB1B3F5807FE3D1114B9A
S1133800114AD86C114BB0F1985F28BF1346DEE71C
S11338100F4BDCE70B4B0F4AD86C0F4BB0F1985FA2
S113382028BF1346D3E70D4BD1E70D4BCFE70D4B24
S1133830CDE700BF00800C4008000020DC01002020
S113384004000020B081E00F40B56400C0CF6A00DE
S1133850809FD500804F120040420F00003FAB0113
S1133860406F4001C0D8A70000487047006CDC02DC
S1133870274AD36A03F47053B3F5805F24D0B3F5B9
S1133880005F1ED0B3F5006F11D0D36803F4E0637A
S1133890B3F5007F39D01AD9B3F5806F33D0B3F5BF
S11338A0A06F2ED0B3F5407F1FD0002001E0194B4C
S11338B01868174B1B68C3F382330133B0FBF3F072
S11338C07047154B1868F4E74FF40040F1E773B103
S11338D0B3F5807FE9D1114A114BD06C114AB0F194
S11338E0985F2CBF18461046E3E70F48E1E70B4A00
S11338F00E4BD06C0E4AB0F1985F2CBF18461046A0
S1133900D7E70C48D5E70C48D3E70C48D1E700BF0C
S113391000800C400800002004000020B081E00F6B
S113392040B56400C0CF6A00809FD500804F12006C
S113393040420F00003FAB01406F4001C0D8A700D8
S1133940014B1868704700BF08000020704700BF93
S11339504FF40040704700BF4FF47A70704700BFC7
S1133960014B1868704700BF0400002070B50C4C70
S113397088B08DF80710ADF80C00042620680DF10E
S11339800705012403A90692ADF81C30ADF80E60BA
S11339900495ADF81440FFF79FFA08B070BD00BF5E
S11339A0CC01002070B50C4C88B08DF80710ADF830
S11339B00C00082620680DF10705012403A90692CE
S11339C0ADF81C30ADF80E600495ADF81440FFF767
S11339D083FA08B070BD00BFCC010020144B10B5B1
S11339E01B78A3B9134B1B7803B910BD124C134BAE
S11339F004F118021868802104F11C03FFF7A2FDEA
S1133A00E169A2690E48BDE81040FEF73BBF0A4CCD
S1133A1004F1140104F11000FFF732F80120FFF75C
S1133A2021F9616922690748FEF72CFFDAE700BF34
S1133A30D0010020D1010020AC010020CC010020E5
S1133A4000580000DC57000070B5534B94B01C685C
S1133A5009A8FDF79BFFB4F1805F04D39DF82430DF
S1133A60032B00F091804D4DFEF7AAFE03ACFEF748
S1133A70DBFEFEF76DFDFEF7A1FE4948FEF706FFEB
S1133A80FEF75AFE0FCD0FC495E8030084E8030047
S1133A9003A8FFF78DF9434D434B002001462B60EB
S1133AA0FFF7EEFD0320FFF745FEFFF7B3FA3F48AB
S1133AB0FFF780FA3E4C3F493F4AEE2309A812948F
S1133AC0119113928DF84130FFF768F83B4C0028B0
S1133AD03DD1012323703A48FEF7D4FE2378002B0E
S1133AE03ED1286880210DF10B02FFF79DFD354D75
S1133AF0002842D001232B703348FEF7C3FE2B4B22
S1133B00002618680121334600964EF66022FFF71E
S1133B10CDFA2E4B2E492F4A5E700E6828782478F1
S1133B201568062130229E60DD609C70D870197083
S1133B301A715A71FFF752FF1E212448FEF7B6FE90
S1133B40FEF7A8FEFFF7BAFDFEF7AAFEF2E7237818
S1133B50002BC0D12048FEF795FE2378002BC0D05F
S1133B600020FFF755F80020FFF79EF80120FFF72B
S1133B7079F80020FFF7C2F8B3E72B78002BBBD10C
S1133B801648FEF77FFEBAE7154A136823F0500380
S1133B9043F01003136066E7FC81E00FC457000094
S1133BA020580000CC01002000A00040D4010020D7
S1133BB06D390000A539000071280000D0010020F3
S1133BC028580000D10100204C580000AC0100200E
S1133BD0F081E00FF481E00F385800005C580000D9
S1133BE0C0800C4053B94AB9002908BF00281CBF43
S1133BF04FF0FF314FF0FF3000F0FABF82B0EC46D7
S1133C002DE9005000F01EF8DDF804E002B00CBC11
S1133C10704700BF2DE9F041069C904606460F46CA
S1133C201D4600F0E7FF08FB01FCA8FB002300FB96
S1133C3005C5B21A2B4467EB03038646C4E9002387
S1133C40BDE8F0812DE9F843089E17468046894671
S1133C501D4601F025F900FB05F3A0FB074507FB12
S1133C600137B8EB04043D4469EB0505C6E900459A
S1133C70BDE8F88303685A004CBF43F0004323F0C7
S1133C8000431844704700BF2DE9F04F83B099B347
S1133C904B1E1746054698460193002606EB08047A
S1133CA004EBD47464104FEAC40A05EB0A0B5846BB
S1133CB0FFF7E0FF019B8146A3420AF10800284474
S1133CC00ED0FFF7D7FFB94500F1FF3004D9B44255
S1133CD00CD004F1FF38E1E7B84203D2661CDDE7FB
S1133CE0B945F4D8584603B0BDE8F08F4FF0000B47
S1133CF0584603B0BDE8F08F8B46584603B0BDE884
S1133D00F08F00BF012807D0022807D0044B0028F9
S1133D100CBF18460020704702487047024870479D
S1133D20194400001D4400002144000030B5254B17
S1133D3083B004468D1E7BB3284601A9AFF30080EF
S1133D4020B301992A46FFF79FFF0546F0B1FFF71C
S1133D5091FF6B68A064012B12D0002B05F10400C5
S1133D6021DBFFF787FF0023E06423650368002B52
S1133D701DDBFFF77FFF00232061184603B030BD31
S1133D80002323610523184603B030BD00232361BB
S1133D900923184603B030BD0B490C4B0846591A89
S1133DA0C9100191CEE70123E0642365DEE7C3F384
S1133DB00360FFF7A7FF002820610CBF092300233D
S1133DC0DBE700BF00000000B4590000EC5B00001A
S1133DD0036810B5DA07044606D49B0700F14800CF
S1133DE009D500F085FC2368590709D51A070ED5B3
S1133DF0DB0613D510BD00F073FC23685907F5D416
S1133E0004F1D00000F07CFC23681A07F0D404F518
S1133E10A87000F07DFC2368DB06EBD404F5E870A1
S1133E20BDE8104000F0B8BC03680BB118447047FB
S1133E301846704709207047704700BF70B50446A4
S1133E400D4608E02A6C23696261012021462A4656
S1133E509847082808D12046296CFFF767FF0646D3
S1133E600028EFD001F069FA0728FBD13046296C0D
S1133E70FFF7E2FF281D00F027FC00BF2DE9F04703
S1133E800646ADF5727D03AD0C1D17460FCC0FC56C
S1133E900FCC0FC50FCC0FC594E80F0002AC4FF048
S1133EA0000ED6F80C80D6F8189085E80F0030463E
S1133EB0216CC4F800E0FFF739FF0546002F0CBF62
S1133EC009270A277DB1A36B47F010018DE8100282
S1133ED00120636432463346C04778BB28460DF55B
S1133EE0727DBDE8F087236C214673614FF4F07254
S1133EF07AA801F079FA336931467AAA38469847A4
S1133F00889B82468DE8100239466364012032465C
S1133F103346C04790B920467AA94FF4F07201F0B5
S1133F2063FABAF1080F06D13046216CFFF7FEFEA2
S1133F3009270546C6E7BAF1070F04D009200DF595
S1133F40727DBDE8F0872846216CFFF775FF03A852
S1133F5000F0BAFB406C7047F0B5CB6BF9B00B6462
S1133F600E1D01AD0F4604460FCE0FC50FCE0FC573
S1133F700FCE0FC596E80F004FF0FF3685E80F000F
S1133F80009606E0236921466A46984708280546B4
S1133F9008D120461099FFF7C9FE0028F2D0092065
S1133FA079B0F0BD6846FFF713FF062DF7D1204620
S1133FB03946FFF743FF00BF30B4DD6BC160826157
S1133FC019461D64002230BC58E700BF70B5436930
S1133FD0C66804460D460B6426B10122FFF74EFF66
S1133FE001F0ABF90369214602202A4698470728C5
S1133FF007D0082803D120462946FFF71FFF01F008
S11340009CF93046296CFFF717FF281D00F05CFB74
S1134010C26832B110B4CC6B00220C645DF8044B5E
S11340202CE799E7704700BF836813B1014601206C
S11340301847704700B5042907D8DFE801F00309E1
S1134040060909000BB90F2A05D902205DF804FB03
S113405001205DF804FB00EB820252681846019BC4
S11340601A605DF804FB00BF00B585B00A4603ABD7
S1134070002100930B46FFF7DDFF039805B05DF8C0
S113408004FB00BF00B5042907D8DFE801F00309E9
S1134090060909000BB90F2A05D902205DF804FBB3
S11340A001205DF804FB019900EB820209681846BF
S11340B051605DF804FB00BF10B50C4684B004AB3E
S11340C043F8042D0021009322460B46FFF7DAFF44
S11340D004B010BDF0B5D36BADF50F7D1364151DA1
S11340E017AC07460E460FCD0FC40FCD0FC40FCD2E
S11340F00FC495E80F004FF0FF3584E80F001695C4
S113410011E016A86A46FFF7D7FF16A83146B8474C
S113411080B9049B0820694616AA984705280446D6
S113412009D0092806D026996846FFF7FFFD0C211F
S11341300028E6D0092416A8FFF74AFE20460DF50C
S11341400F7DF0BD2DE9F04FCC6C904622688BB00A
S113415004340D460792089400F003091E46002B10
S113416064D11202032307928DF825608DF8243060
S11341702B6DB9F1020F08BFAC6B13F0010343D1EF
S113418000F00800C2B2039201932768002F3DD0CB
S1134190022E47D02788B4F802A00434AB6C2AF06E
S11341A0010B40460F219B44FFF75EFF834537D840
S11341B027F001039B4458452CBF002001200AF03E
S11341C0010A07F0010747EA4A0ABAF1010F43D08E
S11341D03AD3BAF1020F1FD1236823F000420292AE
S11341E0B9F1000F7BD138B1039A002A00F0838023
S11341F0029A002A00F0A680002B7ADB029B03F1CE
S1134200010A04EB8A04C0E700230193022E40DD77
S1134210FFF710FE002842D009200BB0BDE8F08F54
S11342200020CCE7D4F804A00834B7E7022B9FDCC5
S1134230130CDFB2120402218DF8253004EB87043D
S113424007928DF8241093E7B9F1000F02D00028EB
S113425040F0AD80043498E7B9F1000F26D1B0B135
S113426094E80C00D70F9A1CD6D005F158020133FC
S1134270069200F09280201DFFF7D6FD3A460146D3
S113428006AB2846AFF30080002840F0B580083420
S11342907BE7404607A900F019FB0028BCD1019B2D
S11342A0002B59D108200BB0BDE8F08F40460D21FA
S11342B02F6AFFF7D9FE8742E9D1AB6A9C42E6D167
S11342C02046FFF7D7FC0F2102464046FFF7F4FED5
S11342D040462A460021FFF7EFFE07209DE74046AF
S11342E00D212F6AFFF7C0FE874245D02368002BBB
S11342F084DA043482E7029B23B305F1580305965C
S1134300039F04F1040ADDF808B0CDF810901E46AE
S113431002E0D9454F4615D050460696FFF784FD76
S11343200022014606AB2846AFF3008007F10109DD
S11343300AF1040A0028ECD0029BDDF810909F4299
S1134340059ED3D140460D21FFF78EFE069B2862C1
S1134350AC626B62062060E70F214046FFF784FEE3
S11343600E2102464046FFF7A7FE40460F21294A88
S1134370FFF7A2FE072050E7AB6A9C42B6D10422A5
S113438002990027A318A962EF622A636B6323686A
S1134390BB421FDB0123019330E740460D21FFF7A9
S11343A063FE2862069B6B62AC62062035E72046FA
S11343B0FFF760FC04340646AC632846AFF3008084
S11343C000283FF429AF404632460F21FFF774FE20
S11343D0072022E70846013004EB8000FFF74AFC7F
S11343E00F2102464046FFF767FE404639462A46FB
S11343F0FFF762FE072010E707460D214046FFF74E
S113440033FE022F2862CDD12B46069A43F82C2F77
S11344106B62C9E700000000002393E6012391E6E4
S113442002238FE6F0B50546C5B004290CD8DFE8B1
S113443001F056030B300E00012B4FEA124496B2E2
S113444065D0052B00F08380022045B0F0BD002B21
S1134450FAD1102AF8D82B68DC0600F1E98022AEE4
S11344603046019200F0A2F9A86B019A00230124BE
S113447004FA03F1114203D00168043046F8231012
S11344800133042BF4D1A863304600F085F90020F1
S1134490DBE7032BD8D1140C97B23B19102BD3D8DC
S11344A02B681E0700F1E48022AE30467F0000F046
S11344B051F906EBC4027B1EAC6B57B12146043A9A
S11344C051F8040B013B42F8040F581CF8D104EBDB
S11344D087043046AC6300F01BF90020B5E7002BDD
S11344E0B2D1AC6B97B2281D012606FA03F139420A
S11344F003F1010302D0216804340160102B00F1A0
S11345000400F2D112F400501FD1AC639DE73219BC
S1134510102A99D80F2C97D829680027C80754D493
S113452022A8019300F0E0F8019B19E00846374601
S1134530012B00F097800F2CA86302D822A800F06A
S1134540D7F817B102A800F0DBF800207DE737198F
S1134550202F3FF679AF0F2C30D93746002E44D1A7
S1134560A96B3246002EE1D000278E4644A84FEABC
S1134570420C00EBC4000CF1FF328C385EF8046B83
S1134580013A40F8046F561CF8D101EB8C00002F5F
S1134590CED02246102C44A938BF102201EBC2020F
S11345A0A2F5C47201467800043A01EB800051F888
S11345B0046B814242F8046FF9D1B9E7102F41D955
S11345C02A68103FD007114610D521F00102052BAF
S11345D02A60019328465BD021F0030140F8481B70
S11345E000F082F8019B002F4AD02A6851075BD45F
S11345F0012B63D00F2C04D822A8019300F07CF87F
S1134600019B002FACD002A8019300F07DF8019B20
S1134610C4F11002002AA96BA7DC2246102C44A87E
S113462038BF102200EBC202A2F5C4727800BBE7C7
S113463023F010032B6005F5E870019200F0B6F842
S1134640019A0CE72968C8071DD5284621F0010204
S113465042F0020240F8482B0193002700F04CF886
S1134660019BC9E70430A86322A800F039F86CE77D
S113467023F008032B6005F5A87000F06BF813E72E
S1134680012B3FF44DAF0F2C98BF0027B4D967E737
S113469042F0020240F8482B00F02EF8019B002F54
S11346A0AAD02A685107A5D5284622F0040240F86A
S11346B0D02B019300F028F8019B99E722A80193DD
S11346C000F012F8019BA3E700F1340191E83800EF
S11346D09C46A6464CF8045D90E8FF0FE54600BDF5
S11346E090EC210B704700BF80EC210B704700BF9A
S11346F090EC200B704700BF80EC200B704700BF8C
S1134700D0EC200B704700BFC0EC200B704700BFFB
S1134710F0EC0201F0EC0211F0EC0221F0EC0231B9
S1134720F0EC0241F0EC0251F0EC0261F0EC0271A9
S1134730F0EC0281F0EC0291F0EC02A1F0EC02B199
S1134740F0EC02C1F0EC02D1F0EC02E1F0EC02F189
S1134750704700BFE0EC0201E0EC0211E0EC022142
S1134760E0EC0231E0EC0241E0EC0251E0EC0261E9
S1134770E0EC0271E0EC0281E0EC0291E0EC02A1D9
S1134780E0EC02B1E0EC02C1E0EC02D1E0EC02E1C9
S1134790E0EC02F1704700BFB0FC0181B0FC019174
S11347A0B0FC01A1B0FC01B1704700BFA0FC0181C5
S11347B0A0FC0191A0FC01A1A0FC01B1704700BFC5
S11347C0EC4600B52DE900502DE9FF1F4FF0000322
S11347D02DE90C0001A9FFF7BFFBDDF840E012B0A2
S11347E0704700BFEC4600B52DE900502DE9FF1FCE
S11347F04FF000032DE90C0001A9FFF7E7FBDDF8FA
S113480040E012B0704700BFEC4600B52DE90050FF
S11348102DE9FF1F4FF000032DE90C0001A9FFF75C
S1134820F7FBDDF840E012B0704700BFEC4600B57E
S11348302DE900502DE9FF1F4FF000032DE90C0076
S113484001ABFFF7B9FBDDF840E012B0704700BFE1
S1134850EC4600B52DE900502DE9FF1F4FF0000391
S11348602DE90C0001AAFFF735FCDDF840E012B099
S1134870704700BF037A1BB9437A43B9B02070472D
S11348805A1E036802721A020260180E70474268C8
S1134890013B10B4437213680321141D01721A0200
S11348A0446002605DF8044B180E704700B585B093
S11348B003AB002100930C220B46FFF7BBFB0398CC
S11348C005B05DF804FB00BFF0E700BF2DE9F0433D
S11348D006460D4685B04FF000082846FFF7CAFF8C
S11348E0B028044600F0B58020F07F0111F0FF01EC
S11348F020D000F0F003802B7AD0902B36D0A02B60
S113490049D0B02B5CD0C02B00F0898000F0F803B4
S1134910D02B0BD100F00702013242F400223046C2
S113492001210523FFF77EFD0028D6D0092005B01C
S1134930BDE8F0830DF10C090B468700CDF800901B
S113494030460D22FFF776FBFFB2039B0437600667
S11349504FF000014CBFDF1BFF18CDF800900B4651
S113496030460D220397FFF78DFBB6E700F00D03E9
S11349700D2BDBD003AF002100F00F020B46009794
S11349803046FFF757FB002100970B4630460D22B7
S1134990FFF778FBA1E7C3434FF47F6203F00703FB
S11349A01A41010702F47F624FF0000148BF42F44C
S11349B080420B463046FFF735FD0028B6D18CE720
S11349C0B1284CD0B2285DD0B32800F08A8000F022
S11349D0FC03B42BAAD000F007020132012142F4F7
S11349E000220B463046FFF71DFD00289ED174E7D8
S11349F02846FFF73FFF24022043B0F5004F95D02F
S1134A0004010021A2B20B463046FFF70BFD00283B
S1134A108CD114F4004F18BF4FF001085DE7C6288D
S1134A2072D0C7287AD000F0F803C02B00F0898038
S1134A30C82800F0A580C9287FF478AF2846FFF77E
S1134A4019FF00F00F02013200F0F00042EA0032D8
S1134A5065E7B8F1000F00F08280002067E7284680
S1134A60FFF708FF024600283FF460AF10F0F001A2
S1134A707FF45CAF30460B46FFF7D4FC00287FF48C
S1134A8055AF2AE700210DF10C090D220B46CDF894
S1134A9000903046FFF7CEFA2846FFF7EBFE0206F9
S1134AA04FF002040CD5039B00F07F00A0400344A8
S1134AB028460393FFF7DEFE030604F10704F2D44D
S1134AC0039B00F07F00A04003F5017300211C1834
S1134AD0CDF800900B4630460D220394FFF7D2FA2E
S1134AE0FBE62846FFF7C6FE00F00F02013200F095
S1134AF0F000012142EA00320B463046FFF792FCF7
S1134B0000287FF413AFE8E62846FFF7B3FE00F071
S1134B100F02013200F0F0000321EBE72846FFF713
S1134B20A9FE024600283FF401AF10F0F0037FF421
S1134B30FDAE30460421FFF775FC00287FF4F6AE85
S1134B40CBE600F00F020132032142F420220B468F
S1134B503046FFF767FC00287FF4E8AEBDE603ACFF
S1134B6041460E22434600943046FFF763FA009410
S1134B70304641460F224346FFF784FA4046D6E6C4
S1134B802846FFF777FE00F0F00200F00F03103222
S1134B90013343EA0232C2E610B5C36C84B0032089
S1134BA05A688DF80C00DC7912020833084601A912
S1134BB001928DF80D400293FFF788FE04B010BDFA
S1134BC008B5FFF781FE806C08BD00BF08B5FFF78C
S1134BD07BFEC36CD87903EB8000083008BD00BFAE
S1134BE008B500F0AAFB00BF08B500F0A6FB00BFA3
S1134BF0704700BF00292DE9F043C0F2A8800026C9
S1134C00002BC0F29E8081468E4690469C461746F5
S1134C1004460D46002B3DD18A4259D9B2FA82F39B
S1134C203BB1C3F120029D4020FA02F29F4015439C
S1134C309C40390CB5FBF1F01FFA87FE01FB1055BF
S1134C400EFB00F3220C42EA0545AB4209D9ED19EB
S1134C5000F1FF3280F00B81AB4240F20881023850
S1134C603D44ED1AB5FBF1F301FB13550EFB03FEB6
S1134C70A4B244EA0545AE4508D9ED1903F1FF3263
S1134C8080F0F780AE4540F2F480023B43EA0043F3
S1134C90002203E08B420FD900221346341C18BFB4
S1134CA0012460424FF0000565EB45015840514036
S1134CB000196941BDE8F083B3FA83F2002A40F099
S1134CC089808B4202D3804500F2E2800123E5E72C
S1134CD012B90123B3FBF2F7B7FA87F8B8F1000F62
S1134CE03BD1ED1B4FEA174C1FFA87FE0122B5FB9F
S1134CF0FCF00CFB10550EFB00F3210C41EA0545BA
S1134D00AB4207D9ED1900F1FF3102D2AB4200F2F8
S1134D10C3800846ED1AB5FBFCF30CFB13550EFBE0
S1134D2003FEA4B244EA0545AE4507D9ED1903F1E3
S1134D30FF3102D2AE4500F2AD800B4643EA004398
S1134D40ACE752426FEA060663EB43035BE740427B
S1134D5061EB41014FF0FF3652E707FA08F7C8F15B
S1134D60200225FA02F34FEA174CB3FBFCF11FFAB9
S1134D7087FE0CFB113324FA02F205FA08F50EFB48
S1134D8001F92A43100C40EA0343994504FA08F454
S1134D9007D9DB1901F1FF3078D2994576D9023968
S1134DA03B44C9EB0303B3FBFCF00CFB10330EFBD9
S1134DB000F592B242EA03439D4207D9DB1900F1A0
S1134DC0FF325FD29D425DD902383B445D1B40EA0D
S1134DD001428CE7C2F1200328FA03F10CFA02FC29
S1134DE041EA0C0C4FEA1C402EFA03F1B1FBF0F53A
S1134DF01FFA8CF700FB151129FA03F30EFA02FED1
S1134E0007FB05F943EA0E0E4FEA1E4343EA01414C
S1134E10894508FA02F808D911EB0C0105F1FF33B2
S1134E2032D2894530D9023D6144C9EB0101B1FB5D
S1134E30F0F300FB131107FB03F71FFA8EFE4EEA93
S1134E40014E774508D91EEB0C0E03F1FF3117D242
S1134E50774515D9023BE64443EA0543A3FB088999
S1134E60C7EB0E0ECE4509D305D0002216E7104637
S1134E70F7E613460AE794404445F6D2013BF4E7CB
S1134E800B46E9E71046A1E71D46CEE7014688E751
S1134E90134603E7023B51E702383D443AE700BFBB
S1134EA02DE9F043002B44D18A42154604464FD9DC
S1134EB0B2FA82F70E464FB1C7F12003B94020FA87
S1134EC003F602FA07F50E4300FA07F42F0CB6FBBB
S1134ED0F7F01FFA85FE07FB10620EFB00F1260CAB
S1134EE046EA0243994209D95B1900F1FF3280F086
S1134EF0EE80994240F2EB8002382B44591AB1FB00
S1134F00F7F307FB13110EFB03FEA4B244EA0141BD
S1134F108E4508D9491903F1FF3280F0DA808E45B5
S1134F2040F2D780023B43EA004000263146BDE808
S1134F30F0838B4247D8B3FA83F6002E48D18B42D4
S1134F4002D3824200F2CF8001203146BDE8F083D3
S1134F5012B90125B5FBF2F5B5FA85FCBCF1000FD9
S1134F6078D1491B2F0C1FFA85FE0126B1FBF7F0FF
S1134F7007FB10110EFB00F2230C43EA01418A42A5
S1134F8007D9491900F1FF3302D28A4200F2BC80EA
S1134F901846891AB1FBF7F307FB13110EFB03FE46
S1134FA0A4B244EA0142964508D9521903F1FF31EB
S1134FB080F09180964540F28E80023B43EA0040A7
S1134FC03146BDE8F083002630463146BDE8F08323
S1134FD0C6F1200422FA04F5B3402B4321FA04F766
S1134FE04FEA1348B7FBF8FC1FFA83F908FB1C7758
S1134FF020FA04FE01FA06F509FB0CF44EEA050555
S11350004FEA154E4EEA0747BC4202FA06F204D9AB
S1135010FF180CF1FF3168D38C463F1BB7FBF8F443
S113502008FB147709FB04F9ADB245EA0741894549
S113503004D9C91804F1FF355DD32C4644EA0C4465
S1135040A4FB0223C9EB0101994249D345D0204670
S113505000266BE7CCF1200405FA0CF521FA04F3E1
S11350602A0CB3FBF2F61FFA85FE02FB163820FA6F
S113507004F701FA0CF10EFB06F90F433C0C44EA69
S11350800843994500FA0CF407D95B1906F1FF317E
S113509038D2994536D9023E2B44C9EB0303B3FBFE
S11350A0F2F002FB10330EFB00F1BFB247EA0343F8
S11350B0994207D95B1900F1FF3721D299421FD9D0
S11350C002382B441746591A40EA06464EE7104662
S11350D014E7134627E70B4670E7B0409042B6D278
S11350E0601E002622E7304620E7BC4294D9ACF18A
S11350F0020C1F4491E789459FD9023C19449DE75E
S11351003846DFE70E46C8E70238294441E700BFC6
S113511003460846194600F017B900F05DB97FB59B
S1135120102302930368002415469E6900946B467D
S11351308DF8044003941268B0479DF8043003F0DE
S11351400603062B11BF2046009B01202B6004B0F0
S113515070BD009890420CBF0620012070470000EB
S113516010B50446024B036000F0CCF8204610BD95
S11351707858000010B50446FFF7F2FF2046FFF709
S1135180CCFF204610BD38B515461C4600F0BFF8CC
S113519020B10823E36006232560237138BD2DE97F
S11351A0F04106460C4615461F4600F0B0F848B9D3
S11351B0032F07D82368204631462A46BDE8F0412C
S11351C05B691847BDE8F0812DE9F041069E1F4652
S11351D0089B80469E421546099C03D1079900F01E
S11351E096F848B94046394600F091F828B10123B1
S11351F026602571A37100E065710020BDE8F0818F
S113520010B50446024B0360FFF7AAFF204610BD09
S1135210D858000010B50446FFF7F2FF2046FFF708
S11352207CFF204610BD2DE9F041069E8046964243
S11352300F4615461C4603D1194600F068F858B9C4
S1135240D8F808003946036806961E6A2A4623469B
S1135250B446BDE8F04160470620BDE8F0812DE981
S1135260F14F0E4619468346174699460A9CDDF8C7
S11352702CA0DDF830800D9D00F049F878B1002EA7
S11352802C602F7106DB3444A0450CBF0624012496
S1135290AC711EE002361CD10123AB7119E0444508
S11352A004D15846514600F032F888B9DBF80800BA
S11352B0314603680A94CDF82CA0CDF830800D95C2
S11352C0DC693A464B46A44601B0BDE8F04F60475E
S11352D06F71002001B0BDE8F08F2DE9F041044664
S11352E00F4616461D46FFF74EFF48B9A0683946DB
S11352F0036832469C692B46A446BDE8F0416047EA
S1135300BDE8F0817047002070470020704781425B
S113531008B50ED0406803782A2B0CD049680B7866
S11353202A2B08BF013100F0FBF8B0FA80F04009E5
S113533008BD012008BD002008BD08B5062000F006
S1135340D3F8012000F006F938B5054604480C46A8
S1135350134620B1022029462246AFF3008038BD0F
S11353600000000008B5074B044613B10021AFF359
S11353700080054B1868836A03B19847204600F003
S1135380E9F800BF00000000485900000E4B70B55A
S11353901E460E4C0025E41AA410A54204D056F86B
S11353A0253098470135F8E700F0D6F8084B094C4A
S11353B01E46E41AA4100025A54204D056F8253050
S11353C098470135F8E770BD700000207000002098
S11353D07000002078000020024B0146186800F09D
S11353E017B800BF6C00002010B5431E0A44914258
S11353F004D011F8014B03F8014FF8E710BD034640
S11354000244934202D003F8011BFAE770470000FC
S113541030B500293CD051F8042C0B1F1D49002A3B
S1135420B8BF9B180A680C4612B95A600B6030BDAD
S113543093420DD219685818904201BF5A58521815
S11354401A60426823605A6030BD994203D80A4604
S113545051680029F9D1146815199D420AD11B68B5
S11354602344D0188842136012D10868034413609F
S11354704B680CE002D90C23036030BD1C6818197A
S1135480884201BF08684968001918605960536070
S113549030BD00BFD80100201F2938B504460D4691
S11354A004D9162303604FF0FF3038BD426C12B1AB
S11354B052F821304BB9204600F030F82A46014614
S11354C02046BDE8384000F017B8012B0AD0591C1B
S11354D003D116230360012038BD002442F825407F
S11354E028469847002038BD024B01461868FFF74C
S11354F0D3BF00BF6C00002038B5074C002305461D
S113550008461146236000F01DF8431C02D12368AD
S113551003B12B6038BD00BFE001002000F00AB8E1
S113552010F8012B11F8013B012A28BF9A42F7D049
S1135530D01A7047024B58221A604FF0FF30704760
S1135540E0010020024B58221A604FF0FF307047F0
S1135550E0010020FEE700BFF8B500BFF8BC08BCBE
S11355609E467047F8B500BFF8BC08BC9E4670471D
S113557008091108050000000000000040420F0067
S11355800501010000000000000000000000000010
S113559000000000B0550000E91B0000ED1B0000F6
S11355A0313148617264776172655350490000007B
S11355B078580000A055000044697361626C65640A
S11355C000000000B8550000945700009C570000EC
S11355D050415F4D494E000011121314151600007E
S11355E050415F484947480050415F4D41580000D1
S11355F050415F4C4F570000314D42505300000062
S1135600D0550000F0550000E0550000E8550000BA
S1135610324D4250530000003235304B425053005B
S1135620F855000010560000185600000A0B0C0D27
S11356300E0F00005354415455530909203D2030A6
S113564078253032782052585F44523D25782054D2
S1135650585F44533D2578204D41585F52543D25B1
S1135660782052585F505F4E4F3D25782054585F44
S113567046554C4C3D25780D0A0000004F425345D9
S11356805256455F54583D253032783A20504F4C9D
S1135690535F434E543D2578204152435F434E545B
S11356A03D25780D0A000000257309203D00000007
S11356B02030782530327800203078002530327858
S11356C00000000052585F414444525F50302D3175
S11356D00000000052585F414444525F50322D355F
S11356E00000000054585F41444452090000000087
S11356F052585F50575F50302D360000454E5F4181
S113570041090000454E5F52584144445200000094
S113571052465F434809000052465F534554555072
S113572000000000434F4E464947090044594E507B
S1135730442F46454154555245000000446174616C
S1135740205261746509203D2025730D0A00000074
S11357504D6F64656C0909203D2025730D0A000016
S1135760435243204C656E67746809203D202573BD
S11357700D0A0000504120506F77657209203D20CA
S113578025730D0A000000006E524632344C30314D
S11357902B000000382062697473000031362062E7
S11357A0697473006E524632344C3031000000008C
S11357B0A4570000885700000001020304050000FC
S11357C00100000000A000400307030601000000E0
S11357D0000000006067010000000000424D5032EC
S11357E038302054656D703A2025640A424D503299
S11357F0383020707265733A2025640A0000000076
S11358005369373032302054656D703A2025640A6C
S11358105369373032302052483A2025640A000058
S113582048656C6C6F000000424D503238302046A1
S11358306F756E64210A0000424D50323830204E9C
S11358406F7420466F756E64210A00005369373007
S1135850323020466F756E64210A00005369373078
S11358603230204E6F7420466F756E64210A00003A
S1135870000000009C5800006151000075510000B8
S1135880075300000B5300009F5100001F510000FC
S113589087510000C951000053510000D85800003E
S11358A0A8580000305900004E31305F5F637878AB
S11358B0616269763131375F5F636C6173735F7402
S11358C07970655F696E666F450000000000000036
S11358D000000000FC5800000152000015520000B6
S11358E0075300000B5300009F5100001F5100009C
S11358F0DB5200005F52000027520000D85800001D
S1135900085900009C5800004E31305F5F6378787E
S1135910616269763132305F5F73695F636C6173B2
S1135920735F747970655F696E666F45000000008F
S11359307858000038590000537439747970655FE1
S1135940696E666F004300000C0000201000000028
S113595000000000017A5200027C0E011B0C0D00B5
S11359601000000018000000B8FBFFFF1400000046
S10B597000000000000000002B
S1135978B1970181B0B0AF080000000008B10181FF
S1135988B0B000840000000008B10181B0B0008408
S11359980000000008B10181B0B0008400000000DC
S10F59A808B10181B0B0008400000000D0
S11359B484A7FF7F010000003CC2FF7FB0AA0580DA
S11359C4D0C2FF7F01000000F0C2FF7FB0B0AC8002
S11359D444C3FF7FB0B0AA8080C3FF7FB0B0AC8063
S11359E4D4C3FF7FAB08B18014C4FF7FB0B0AE80D2
S11359F4A8C4FF7FA908B180D4C4FF7FB0A80380E2
S1135A04F8C4FF7FAB08B18038C5FF7F68FFFF7F10
S1135A14B4C5FF7F01000000DCC5FF7FB0B0A880DF
S1135A2448C6FF7FA908B18074C6FF7FB0B0A880C0
S1135A34D8C6FF7FA908B18000C7FF7FB0A9028040
S1135A4450C7FF7F0100000050C7FF7FB0A9028048
S1135A5478C7FF7FB0AA0180F0C7FF7FA908B1808F
S1135A6440C8FF7FB0B0A880B4C8FF7F0100000025
S1135A74C0C8FF7FA908B180E8C8FF7FB0B0AA807E
S1135A842CC9FF7FFCFEFF7F40C9FF7FA908B180BA
S1135A948CC9FF7FB0B0A880A4CAFF7F01000000B6
S1135AA494CCFF7FB0B0A88010CDFF7F010000002C
S1135AB40CCDFF7FA908B1806CCDFF7FD0FEFF7FA2
S1135AC48CCDFF7F01000000E0CDFF7FA908B180E9
S1135AD408CEFF7F0100000030CFFF7FB0AB02800F
S1135AE49CCFFF7FB0AA0180D0CFFF7FB0A90680EE
S1135AF4A8D0FF7FB0AC018014D1FF7FB0AA01808D
S1135B0460D1FF7FB0A801809CD1FF7FB0AA01803F
S1135B149CD2FF7F0100000050DEFF7FB0AA078003
S1135B24B8DEFF7FB0B0A8801CDFFF7FB0AA13806B
S1135B34B0E0FF7F01000000F0E1FF7FB0A9028024
S1135B448CE2FF7FB0B0A880DCE2FF7F010000009C
S1135B54E8E2FF7FB0B0AA8020E3FF7FAE71B28099
S1135B64F0E3FF7F01000000ECE3FF7FAB3F3880EC
S1135B7444E4FF7F0100000050E4FF7FB0B0AA803A
S1135B848CE4FF7F0100000048E5FF7FAB0EB28088
S1135B94B0E5FF7FB0AF0A807CE8FF7F010000001E
S1135BA480E8FF7FAB3F04801CEBFF7F0100000013
S1135BB4F8ECFF7F008404800CEDFF7F01000000FB
S1135BC408EDFF7FB0AD0480CCEFFF7FB0A8038065
S1135BD4ECEFFF7FC4FDFF7FF0EFFF7FC8FDFF7F85
S10B5BE4FCEFFF7F010000004B
S1135BEC0000000000800000006CDC0200000000DB
S1135BFC0000000000000000000000000000000095
S1135C0C00000000000000000000000045590000E6
S1135C1C0000000000000000000000000000000074
S1135C2C0000000000000000000000000000000064
S1135C3C0000000000000000000000000000000054
S1135C4C0000000000000000000000000C00002018
S1135C5C01010000DD280000DD0000000000000050
S903375D68
